:020000040800F2
:100000000050002075970008C1960008CB960008A4
:1000100000000000000000000000000000000000E0
:10002000000000000000000000000000D196000861
:100030000000000000000000DB960008E5960008C4
:10004000C5970008C5970008E9570008C59700083C
:10005000C5970008554E00086B4E0008814E0008F9
:10006000C5970008C5970008C5970008C597000800
:10007000C5970008C5970008C5970008C5970008F0
:10008000C5970008C5970008C59700080000000044
:10009000C5970008C5970008C5970008C5970008D0
:1000A000C5970008C5970008C5970008C5970008C0
:1000B000C5970008C5970008C5970008C5970008B0
:1000C00010B5064C2378002B07D1054B002B02D02E
:1000D000044800E000BF0123237010BD2000002071
:1000E0000000000054980008044B10B5002B03D00A
:1000F0000349044800E000BF10BDC04600000000F6
:100100002400002054980008002243088B4274D336
:1001100003098B425FD3030A8B4244D3030B8B4208
:1001200028D3030C8B420DD3FF22090212BA030C11
:100130008B4202D31212090265D0030B8B4219D3F2
:1001400000E0090AC30B8B4201D3CB03C01A524112
:10015000830B8B4201D38B03C01A5241430B8B425A
:1001600001D34B03C01A5241030B8B4201D30B0343
:10017000C01A5241C30A8B4201D3CB02C01A52416A
:10018000830A8B4201D38B02C01A5241430A8B422D
:1001900001D34B02C01A5241030A8B4201D30B0216
:1001A000C01A5241CDD2C3098B4201D3CB01C01A30
:1001B000524183098B4201D38B01C01A524143093A
:1001C0008B4201D34B01C01A524103098B4201D328
:1001D0000B01C01A5241C3088B4201D3CB00C01A95
:1001E000524183088B4201D38B00C01A524143080D
:1001F0008B4201D34B00C01A5241411A00D2014632
:10020000524110467047FFE701B5002000F0F0F8BA
:1002100002BDC0460029F7D076E7704703460B437E
:100220007FD4002243088B4274D303098B425FD3EF
:10023000030A8B4244D3030B8B4228D3030C8B421B
:100240000DD3FF22090212BA030C8B4202D3121201
:10025000090265D0030B8B4219D300E0090AC30BD6
:100260008B4201D3CB03C01A5241830B8B4201D383
:100270008B03C01A5241430B8B4201D34B03C01A6C
:100280005241030B8B4201D30B03C01A5241C30AE4
:100290008B4201D3CB02C01A5241830A8B4201D355
:1002A0008B02C01A5241430A8B4201D34B02C01A3F
:1002B0005241030A8B4201D30B02C01A5241CDD2E4
:1002C000C3098B4201D3CB01C01A524183098B422F
:1002D00001D38B01C01A524143098B4201D34B0118
:1002E000C01A524103098B4201D30B01C01A52417B
:1002F000C3088B4201D3CB00C01A524183088B4202
:1003000001D38B00C01A524143088B4201D34B00EA
:10031000C01A5241411A00D201465241104670475C
:100320005DE0CA0F00D04942031000D34042534061
:1003300000229C4603098B422DD3030A8B4212D321
:10034000FC22890112BA030A8B420CD38901921153
:100350008B4208D3890192118B4204D389013AD090
:10036000921100E08909C3098B4201D3CB01C01A65
:10037000524183098B4201D38B01C01A5241430978
:100380008B4201D34B01C01A524103098B4201D366
:100390000B01C01A5241C3088B4201D3CB00C01AD3
:1003A000524183088B4201D38B00C01A5241D9D2EB
:1003B00043088B4201D34B00C01A5241411A00D26C
:1003C0000146634652415B10104601D34042002B68
:1003D00000D54942704763465B1000D3404201B5E7
:1003E000002000F005F802BD0029F8D016E770479C
:1003F0007047C0468446101C62468C46191C6346F2
:1004000000E0C0461FB500F0D3FC002801D4002155
:10041000C8421FBD10B500F01DFC4042013010BDA8
:1004200010B500F0C5FC002801DB002010BD012044
:1004300010BDC04610B500F0BBFC002801DD002057
:1004400010BD012010BDC04610B500F03FFC0028D3
:1004500001DC002010BD012010BDC04610B500F029
:1004600035FC002801DA002010BD012010BDC04677
:10047000002B11D1002A0FD1002900D1002802D071
:100480000021C943081C07B4024802A14018029089
:1004900003BDC0465DFFFFFF03B4684601B5029887
:1004A00000F024F8019B9E4602B00CBC7047C04689
:1004B00070B500220C4B04000D00FFF7CFFF0028A1
:1004C00004D12000290001F0E1FA70BD064B0022A2
:1004D0002000290000F048FF01F0D8FA80231B0615
:1004E0009C466044F1E7C0460000E041F0B5574645
:1004F0004E464546DE46E0B504000D00924699465C
:1005000083B08B4230D82DD04946504601F068FB6D
:1005100029000600200001F063FB331A9846203BB7
:100520009B4633D45A465346934042461F00534697
:1005300093401E00AF423AD8AF4200D178E05B460C
:10054000A41BBD41002B00DA75E0002200230092BD
:10055000019301235A46934001930123424693405D
:10056000009328E08242CFD9002200230092019319
:100570000C9B002B01D01C605D600098019903B0BA
:100580003CBC90469946A246AB46F0BD424620236D
:100590009B1A5246DA40414613004A468A401700E9
:1005A00042461F43534693401E00AF42C4D9002227
:1005B0000023009201934346002BD9D0FB07720819
:1005C0001A4346467B080EE0AB4201D1A2420CD84A
:1005D000A41A9D41012024196D410021013E2418D7
:1005E0004D41002E06D0AB42EED9013E24196D419B
:1005F000002EF8D1009801995B4600196941002B43
:1006000024DB2B005A464446D3402A00E2401C001B
:100610005B461500002B2ADB26009E403300260097
:100620004746BE403200801A9941009001919FE7F1
:10063000A342BCD883E74246202300219B1A002214
:10064000009101920122DA40019286E7424620237E
:100650009B1A2A0046469A402300F340444613431F
:100660002A00E2401C005B461500002BD4DA42460B
:100670002F002023260097409B1ADE403B00334387
:10068000CDE7C046F0B557464E464546DE46E0B596
:10069000814605000C03480092461F0085B0240BDC
:1006A000400DCE0F002859D0874B984200D198E0DA
:1006B0006B0FE4001C4380231B0423439846834BA9
:1006C000ED009B4600239946834400933C037B0046
:1006D0005046240B5B0DFF0F002B67D07A4A9342E4
:1006E00018D07A49420F8C46E400594614438022C0
:1006F00063441204CB1A14439B46C200002033000B
:100700007B409A464B460F2B00D9EFE070499B0087
:10071000CB589F466F4B52469C462243E344002AE7
:1007200000D095E04946022319438946002402205F
:10073000E5E700230024002552461B052343D2078A
:1007400013432800190005B03CBC90469946A246C8
:10075000AB46F0BD002400255B4BEDE74B46234341
:10076000984600D189E0002C00D1E0E1200001F0A2
:1007700019FA010002000B391D235B1A49461000CB
:10078000D940083884400B004D46234398468540A5
:1007900051483C03831A9B460023994600937B00F3
:1007A0005046240B5B0DFF0F002B97D1524622437E
:1007B00055D0002C00D1CAE1200001F0F3F902006D
:1007C0000B3A1D2301009B1A52460839DA408C402F
:1007D000144352468A40414B58449B468344002070
:1007E0008DE74B462343984640D108239946063B64
:1007F00000258346009369E7B246009B022BA9D0EF
:10080000032B00D111E2012B93D0354A5A44002A20
:1008100000DC3CE16B0700D0A7E1ED084346DB01BB
:1008200006D542462F4B1A4090468022D2005A44A9
:100830002D4B9A428EDC4346520558075C02054315
:10084000240B530D78E7BA46A04615000090D4E774
:100850004A4603231A439146032052464FE749462E
:100860000123194389460024012048E70C239946B7
:10087000093BA0468346009328E7042399460023BA
:100880009B4601330025009320E7002380249A46ED
:1008900000250D4B24034FE7802341461B031942DB
:1008A00008D01C4206D11C432403BA461500064B4F
:1008B000240B41E78024434624031C432403B2460F
:1008C000014B240B38E7C046FF07000001FCFFFF87
:1008D0006C98000801F8FFFF0DFCFFFFF303000018
:1008E000FF030000FFFFFFFEFE070000444500D2AB
:1008F00016E100D111E101235B429C462E004046E7
:100900000025E3442302140E1C431B0C99462304C8
:100910001F0C1202494600920197FFF77BFC020070
:100920007A430B04310C804619438A420BD90123C8
:100930005B429C460919E0448C4204D88A4202D9A1
:10094000831E98460919881A4946FFF763FC090473
:100950008C4631046646019A090C42430300314338
:100960008A4204D90919013B8C4200D811E1891A45
:100970004246009E12041A43330C1F00100C90468E
:10098000029313043204160C32001B0C5A430396D4
:100990007B4346437843170CBC469B1963449E42F5
:1009A00003D980267602B44660441E0C3018160423
:1009B0001B04360C9E19814200D29CE000D197E0C6
:1009C000AE1B091AB54280414042081A844200D148
:1009D00011E14946FFF71EFC019A0B044243310C1A
:1009E000050019438A4207D90919013D8C4203D8F1
:1009F0008A4201D9851E0919881A4946FFF70AFC5F
:100A000009048C4631046646019A090C42430300EE
:100A100031438A4207D90919013B8C4203D88A42E3
:100A200001D9831E0919039E891A32002D041D4322
:100A3000029F2B041B0C5A437B439C46280C4643C5
:100A4000130CB444634478439E4203D98026760253
:100A5000B44660441E0C12041B04120C30189B1880
:100A6000814206D302D001231D43CEE6002B00D1E4
:100A7000CBE661186E1EA14200D2A4E0814200D2F2
:100A8000C9E000D1D9E03500EDE701256D42012133
:100A9000891A382900DD4CE61F2900DC7FE01F237E
:100AA0005B429A1A4346D340202904D04446654A03
:100AB0005A44944025436A1E954107222B43150052
:100AC00000241D401A4200D1A1E00F2200241A4048
:100AD000042A00D198E01A1D9A429B415B42E41817
:100AE0001300220200D48FE001230024002523E616
:100AF000B54200D364E743465A1E009B9C466544BA
:100B00001F009D429B415B421B19C9188C423AD27F
:100B1000884263D860D0904652E7AA4200D9EAE6FC
:100B20004346DE0758086B081E43ED07EAE64846D1
:100B300001F038F801000200153120321C2900DCD8
:100B40001AE64B46083883400025984620E601F017
:100B500029F803001A00153220301C2A00DC30E688
:100B60005446083B00229C4035E60F232B40042BC3
:100B700000D152E605235B42AB429B4104355B4208
:100B8000ED0898444AE68C42C5D1AF42C0D99046A0
:100B900016E78A4200D8EAE6831E0919E7E62A4AE0
:100BA00028005A44434695409340C8406A1E9541E8
:100BB000444603432B43CC405A0792D00F221A409D
:100BC000042A88D18DE73500814200D04BE7009A96
:100BD000934200D047E718E6AE429CD902235B421D
:100BE0009C46009BE0449C4665449D429B415B4281
:100BF0001B19C918E4E6154A5A44002A00DC44E7E8
:100C000001230025984409E665076402240BDB08EC
:100C10001D43002390E5009E023D7200B242BF4199
:100C20007F423C1909190092CEE7802443462403F1
:100C30001C432403064B240B7EE5009A9A42EAD318
:100C40003500C4E73E0400001E040000FF0300005E
:100C5000FF070000F0B54F464646D64694469146FB
:100C60001A03120B184DC0B54C000F0392465A00E0
:100C7000060080463F0B0120640DC90F520DDB0FAB
:100C8000AC420AD0AA4203D0944201D157450DD0BC
:100C90001CBC90469946A246F0BD3D003543F7D1B5
:100CA000A242F5D1524665462A43F1D10120C845FA
:100CB000EED1994206D0002CEAD13E433000461EC8
:100CC000B041E5E70020E3E7FF070000F0B54E463E
:100CD00045465746DE4604001800E0B516001B03E3
:100CE0001B0B324D0F034A0099464300A446B04601
:100CF0003F0B520DC90F5B0DC00FAA4229D0AB426A
:100D000018D0002A2AD13C43A34665426541002BF6
:100D100002D14C46264327D0002D15D1814228D040
:100D200002200139084001383CBC90469946A24651
:100D3000AB46F0BD4D462E432FD1002AEED13C43A9
:100D400065426541002DE9D00028EDD101204042E7
:100D5000EAE73D00254320D19342EBD0002BDDD1C3
:100D60004C462643DAD1DBE75B460020002BDBD084
:100D7000D6E79A420ADCE7DB4F45D1D810D00020F5
:100D80004F45D1D20029E1D00800CDE74342584178
:100D90000223404218400138C6E702204042C3E720
:100DA000C445BDD80020C445BED2EBE7FF07000014
:100DB000F0B54E4645465746DE4604001800E0B5FD
:100DC00016001B031B0B314D0F034A0099464300CD
:100DD000A446B0463F0B520DC90F5B0DC00FAA428F
:100DE00011D0AB4214D0002A2FD13C43A346654218
:100DF0006541002B14D14C46264311D15B4600209F
:100E0000002B17D010E03D00254312D193421CD196
:100E10004D462E430DD1002A04D13C436542654125
:100E2000002D0DD1814216D0022001390840013831
:100E300000E002203CBC90469946A246AB46F0BD7D
:100E40000028F7D101204042F4E7002BEAD14C46BC
:100E50002643E7D1E8E79A4206DD434258410223A0
:100E6000404218400138E5E79A42E9DB4F45DBD8BC
:100E700006D000204F45DDD20029E3D00800D9E795
:100E8000C445D1D80020C445D4D2F5E7FF070000FF
:100E9000F0B557464E464546DE46E0B598460C034B
:100EA0004B000600924687B0240B5B0DCF0F002B42
:100EB0006CD0DD4A934200D186E0420FE400144337
:100EC000802212041443D94AC50094466344009317
:100ED000002399469B46434642461E03D20F5B00C1
:100EE00050469046360B5B0D00D178E0CE4A9342D7
:100EF0001DD0CE49420F8C4600996344F6008C46C3
:100F0000164380229C44120463461643C20000200C
:100F100000930099434601318C4649467B4001933A
:100F20000F2900D97EE0C24B890059588F4652469E
:100F3000009B324300D056E1BB4900268C466344F7
:100F4000494600930223194389460220E1E74346BC
:100F500001933400150083465B46022B5ED0032BC1
:100F600000D1F3E1012B00D018E10022002400257C
:100F7000019B12052243DB071A432800110007B02A
:100F80003CBC90469946A246AB46F0BD25000543C1
:100F900000D141E1002C00D1ADE1200000F002FEC3
:100FA000010002000B391D2310005B1A31003500CF
:100FB00008388440D94085400C439E48831A0093EA
:100FC000002399469B4686E70500254300D01CE197
:100FD000082200930223002491469B467BE7524659
:100FE000324300D10AE1002E00D176E1300000F05A
:100FF000D9FD02000B3A1D2301009B1A5246083905
:10100000DA408E40164352468A40009B8949181A9E
:1010100003008C466344002000937AE700240025F7
:10102000814AA5E72F0C2D042D0C2B00110C120466
:10103000120C53439846130028007B4399464843BB
:101040004844834640460B00000C824658467B438A
:1010500050440293814506D99A4680235B02994603
:10106000CA4453460293030C9B4643461B040004A8
:101070001B0C9846030043440493330C99462B0001
:101080003604360C7343984633007B439A464B46EE
:101090005D435F4343465544180C4019824503D9CC
:1010A00080235B029A465744050CEB19059343468F
:1010B0001D042D0C00044019250C2404240C2700C9
:1010C00057436A4390462A003B0C9A464A43614381
:1010D000414451448344884503D980235B029846A8
:1010E00042443F040B0C3F0C0904C91927009846E1
:1010F0004B4677435C436E435D433B0C9946A419D2
:101100004C4442440395A64204D980235B0298468E
:1011100045440395029B3F045B441E00834280418B
:1011200023049846059B3F0C4744984676188E4208
:101130008941474440423D18A846934649428A4661
:10114000C3449F42BF4180458041039BDA44984697
:10115000534640427F420743240C934592418A45BF
:1011600089413F19DC0D049B75021D43681E8541B2
:101170005346524249420A43BF184744F60D7F0284
:1011800035435A023C431543FB0100D4C1E0012121
:101190006A080D401543E207154364082649614477
:1011A000002956DD6B0709D00F222A40042A05D0FA
:1011B0002A1DAA42AD416D4264191500E30104D510
:1011C00080211E4AC900144061441D4A914200DD3D
:1011D00024E76207ED08640249051543240B4A0D14
:1011E000C6E60197B8E6104A0320944663444A468F
:1011F000009303231A43914652468AE64946012347
:10120000194389460026012083E60C22009303231C
:10121000050091469B465EE6042399460023009311
:10122000013300249B4656E6FF07000001FCFFFF48
:10123000AC9800080DFCFFFFFF030000FFFFFFFE5E
:10124000FE070000002380240025444A0193240364
:101250008EE60120401A382800DD86E61F285BDD77
:101260001F2223005242511ACB401900202803D0DC
:101270003B4A6244944025436A1E95412A000A4332
:1012800007210D000024154011425BD00F210024DE
:101290001140042953D0111D914292415242A41889
:1012A0000A0023024BD501220024002560E680239A
:1012B0001B031C4209D01E4207D133431C03434683
:1012C0001500240B254A019352E680221203144391
:1012D0002403224A240B01974AE600F063FC030032
:1012E0001A00153220301C2A00DC84E65646083BE2
:1012F00000229E4089E600F055FC010002001531F5
:1013000020321C2900DC4EE63400083800258440D9
:1013100053E6009B9C4641E71249220061442E009F
:101320008D408A40C640691E8D4132432A43C440E5
:101330005307B6D00F2111400429ACD1B1E765079E
:101340006402240BD2081543002211E68022120306
:1013500014432403014A240B0AE6C046FF07000099
:101360003E0400001E040000F8B557464E464546B0
:10137000DE460400E0B51F0010000B03620F4E00B4
:10138000CD0F5B0A39031343490AE200440F21439E
:10139000C24C91469246C0007A008046760D520DAE
:1013A000FF0FA24200D1B4E001246740BB46BD421A
:1013B00000D188E0B41AA446002C00DCB2E0002A78
:1013C00000D1C5E0B54A964200D18BE280221204DA
:1013D00011436246382A00DDA1E11F2A00DD16E232
:1013E00020270C00BF1ABC400200A0466446B8404B
:1013F000E240444614430200501E82416046C14010
:1014000022435B1A49468C1AA145924152429B1ACB
:10141000984643461B0200D417E143465B025B0A31
:1014200098464346002B00D16CE1404600F0BAFBE1
:101430000200083A202120004346891A9340C84000
:1014400094400343964200DD57E1961B711C1F290F
:1014500000DDCBE1202218002600521A9440904073
:10146000CE40CB40621E9441304398460026044350
:10147000630709D00F232340042B05D0231DA3426B
:10148000A4416442A0441C0043461B0200D4DFE098
:10149000824B01369E4200D1FBE04246804BE4087D
:1014A0001A401300710552075B0222431B0B490DC2
:1014B0000905ED071943294310003CBC90469946A5
:1014C000A246AB46F8BDB41AA446002C58DD002A4B
:1014D00000D19EE0714A964200D13BE18022120485
:1014E00011436246382A00DDC1E01F2A00DCBBE15F
:1014F0000C00203AD44022006446202C04D040271F
:101500003F1BB940084380464446611E8C4114434A
:10151000B1E00C0004432AD0BB46BD422DD0614C43
:10152000A446B4446446002C5CD0941BA446002E10
:1015300000D015E14D461D4300D1C3E1651E012CCD
:1015400000D10CE2554EB44200D1F8E1AC460EE1B8
:101550000A00024300D136E12200013A012C00D1F9
:10156000C6E14E4CA44500D1F4E0944631E7012495
:101570006740BB46BD4200D01CE74A4CA446B44479
:101580006446002C00D1CFE0941BA446002E00D16D
:101590005CE1424EB24200D1ECE180263604334396
:1015A0006446382C00DDB3E11F2C00DD38E2202634
:1015B000361B1C00B4404F46A0466446E7404446F4
:1015C0003C434F46B7403E00771EBE41344366461B
:1015D000F340C918241884429B415B429846160088
:1015E00088444EE0304A741C144200D0D6E04A468B
:1015F0001A43002E00D05BE1002A00D1A5E10A00C9
:10160000024300D0BBE14A465907D2080A43DB082F
:1016100027E00A00024300D174E12200013A012CC4
:1016200005D01E4CA44500D194E0944659E74844A7
:10163000484592415B189846040052429044434604
:1016400002261B0200D5C4E0013E630700D011E76B
:101650004346B4465907E2080A43DB080F498C4564
:1016600040D061461B0349051B0B490D20E7014390
:101670000C00611E8C414C444C45924152429046B4
:10168000984443461B02E0D5044B01369E4200D0ED
:101690009FE03100002300220AE7C046FF07000058
:1016A000FFFF7FFF01F8FFFFFE070000002A00D1C7
:1016B00060E10A0002434DD04A465C07D20822434B
:1016C0008024DB082403234207D0CE08264204D11D
:1016D0005D463300C20849070A43510FD200D208C1
:1016E00049070A431100194300D1C8E180210903C9
:1016F0000B431B03D5491B0BDAE6D549B61A0B4041
:101700009846B5E6200000F04DFA020018321F2A74
:1017100000DC8FE6230008388340002492E608436B
:101720000200501E82416DE6CA4C721C224200D05B
:10173000ADE04A461A43002EB8D1002A00D158E144
:101740000A00024300D059E14A465907D2080A4329
:10175000DB0886E74A465907D2080A43DB08C1E797
:10176000BA4DAA4200D11EE180252D042B436446C8
:10177000382C5DDC1F2C00DDD0E0202567462D1BBA
:101780004E461C00FE40AC4034434E46AE40350051
:10179000FB406E1EB541C91A2C434EE04A46141A4E
:1017A000A1459241524290465F1A3A004746D21BE9
:1017B0009046120200D58BE04246224300D030E62C
:1017C000002300254DE74A465907D2080A43DB08A3
:1017D00044E742469E4B61081A4013000122144020
:1017E0000C43DA075B089846144341E61A001F3E93
:1017F000F2401600202903D04022511A8B401C438E
:10180000621E944100233443984600261DE70C00D5
:10181000203AD44022006446202C04D040273F1BAD
:10182000B940084380464446611E8C412243E9E5A5
:101830004C4623431C00631E9C41041BA0429B4159
:101840005B42CB1A98465D461600E2E54E461E43C3
:1018500000D1AEE0661E012C00D1FDE07B4FBC4202
:1018600000D107E1B4469BE664462022121B0C001F
:10187000944007009040A0466446421E9041624654
:10188000E7404446D1403C4304435B18F3E66F4CC9
:10189000A24200D1D5E048445B18484589414942FD
:1018A0005B18DC0740085B08984616000443CCE64A
:1018B000002A00D082E00A00024340D180230025A4
:1018C0001B0313E74B07C2081A435D46CB08C5E666
:1018D0004A46841AA0429241CB1A52429B1A984619
:1018E0005D469EE54A465907D2080A43DB08F9E6F9
:1018F0004A46141AA14592415B1A52429B1A9846D5
:10190000012686E54A465907D2080A43DB08A5E6C0
:101910004C4623431C00631E9C415BE665461E004B
:10192000203DEE40202C05D040252D1BAB404C46E1
:101930001C43A2465446631E9C4134437DE74B073B
:10194000C2081A435D46CB08CCE60A00024300D128
:1019500036E74B07C2081A435D46CB0881E64A4684
:10196000841AA0429241CB1A52429B1A98465D4675
:1019700001264EE54B07C2081A43CB08B2E64A4699
:10198000141AA14592415F1A5242BA1A90461202A5
:101990006BD54A46841AA0429241CB1A52429B1AF6
:1019A00098465D4664E54B07C2081A435D46CB087E
:1019B00098E64B07C2081A43CB084FE60A000243D9
:1019C00090D04A465C07D20814438022DB081203F9
:1019D000134208D0CE08164205D1C0084907084373
:1019E00004005D463300610FE2004907D2080A4354
:1019F00078E64B07C2081A43CB0832E648445B1826
:101A000048459241984652429044434604001B0286
:101A100000D41AE642460E4B01261A40904614E6C0
:101A200066461F00203EF740202C05D04026361B7E
:101A3000B3404C461C43A2465446631E9C413C4363
:101A4000C8E511000023002232E5C046FF07000070
:101A5000FFFF7FFFFE0700004A46141884429241B0
:101A60005B18984652429044E9E54246224300D131
:101A7000A6E6EAE54B07C2081A43CB0832E6002285
:101A80000149130014E5C046FF0700000A0030B505
:101A9000134C530009030500090B00205B0DD20F06
:101AA000A34204DD0F48834202DD0F4BD01830BD46
:101AB0008020400301430D48C01A1F2808DD0C4850
:101AC000C31AD9400B005842002AF0D11800EEE7A3
:101AD000084CC540A446634499400B002B43F2E7F1
:101AE000FE0300001D040000FFFFFF7F3304000021
:101AF00013040000EDFBFFFF70B5002816D0C317DC
:101B0000C5185D40C40F280000F04CF8114A121AA5
:101B10000A2816DC03002E0015339E400B23181AEA
:101B2000C54053052D032D0B5B0D03E0002400235E
:101B3000002500261B052B43E40723433000190032
:101B400070BD0B38854053052D0300262D0B5B0D12
:101B5000F0E7C0461E04000010B5041E10D000F0CF
:101B600021F80F4B1B1A0A2811DC0B222100121A34
:101B7000D14015300A035B058440120B5B0D01E078
:101B8000002300221B0513432000190010BD220072
:101B90000B3882405B0512030024120B5B0DF1E74A
:101BA0001E0400001C2101231B04984201D3000CD9
:101BB00010391B0A984201D3000A08391B099842C0
:101BC00001D30009043902A2105C40187047C046D6
:101BD00004030202010101010000000000000000F6
:101BE00010B5002903D1FFF7DDFF203002E0081C0B
:101BF000FFF7D8FF10BDC04680B582B000AFFB1D17
:101C000000221A700B4B1A680A4B40210A431A60D3
:101C1000002000F011F8031E03D0FB1D01221A70F2
:101C200001E007F0F5FCFB1D1B781800BD4602B073
:101C300080BDC0460020024090B585B000AF7860FE
:101C40000F243B1900221A700F4B1B68FA229100D7
:101C50001800FEF759FA0300180000F018F9031EE7
:101C600003D03B1901221A7006E0796801235B4218
:101C70000022180000F0E6F80F23FB181B7818006C
:101C8000BD4605B090BDC0461C00002080B500AF29
:101C9000034B1B685A1C024B1A60C046BD4680BDF0
:101CA0003C00002080B500AF024B1B681800BD4609
:101CB00080BDC0463C00002080B584B000AF786095
:101CC000FFF7F0FF0300BB607B68FB60FB6801333C
:101CD00002D0FB680133FB60C046FFF7E3FF020060
:101CE000BB68D31AFA689A42F7D8C046C046BD46C8
:101CF00004B080BD80B582B000AF0200FB1D1A7039
:101D0000FB1D1B781A001F231A40044B0121914030
:101D10000A001A60C046BD4602B080BD00E100E086
:101D200090B583B000AF02003960FB1D1A70FB1D37
:101D30001B787F2B32D92F4AFB1D1B7819000F23EC
:101D40000B40083B9B0806339B00D31804331B68E9
:101D5000FA1D1278110003220A40D200FF2191409F
:101D60000A00D2431A4011003B689B01FF221A402F
:101D7000FB1D1B78180003230340DB009A401D481D
:101D8000FB1D1B781C000F232340083B9B080A43C4
:101D900006339B00C31804331A6027E0164AFB1D64
:101DA0001B785BB29B08C0339B009B58FA1D1278CE
:101DB000110003220A40D200FF2191400A00D243C1
:101DC0001A4011003B689B01FF221A40FB1D1B7843
:101DD000180003230340DB009A400748FB1D1B78D3
:101DE0005BB29B080A43C0339B001A50C046BD46F5
:101DF00003B090BD00ED00E000E100E080B582B0EE
:101E000000AF78607B685A1E80235B049A4201D33E
:101E1000012310E00A4B7A68013A5A6001235B42C1
:101E200003211800FFF77CFF054B00229A60044B4A
:101E300007221A6000231800BD4602B080BDC046CC
:101E400010E000E080B584B000AFB9607A600F2187
:101E50007B18021C1A70BA687B181B785BB21100E1
:101E60001800FFF75DFFC046BD4604B080BD80B5D9
:101E700082B000AF0200FB1D1A70FB1D1B785BB225
:101E80001800FFF737FFC046BD4602B080BD80B5E1
:101E900082B000AF78607B681800FFF7AFFF0300E7
:101EA0001800BD4602B080BD80B582B000AF78603A
:101EB0007B68042B06D1084B1A68074B04210A43A0
:101EC0001A6005E0044B1A68034B04218A431A6028
:101ED000C046BD4602B080BD10E000E080B500AF56
:101EE00000F003F8C046BD4680BD80B500AFC046D7
:101EF000BD4680BD80B586B000AF786039600023F4
:101F00007B610023FB6000233B6155E13B681B685C
:101F100001217A6991400A001340FB60FB68002BA5
:101F200000D146E13B685B68022B03D03B685B68ED
:101F3000122B23D17B69DA087B6808329200D358D0
:101F40003B617B69072213409B000F229A401300DC
:101F5000DA433B6913403B613B681A697B6907219F
:101F60000B409B009A4013003A6913433B617B6925
:101F7000DA087B68083292003969D1503B685B68A7
:101F8000012B0BD03B685B68022B07D03B685B687A
:101F9000112B03D03B685B68122B30D17B689B68A8
:101FA0003B617B695B0003229A401300DA433B6983
:101FB00013403B613B68DA687B695B009A40130021
:101FC0003A6913433B617B683A699A607B685B6856
:101FD0003B6101227B699A401300DA433B6913405D
:101FE0003B613B685B681B0901221A407B699A4090
:101FF00013003A6913433B617B683A695A607B6816
:102000001B683B617B695B0003229A401300DA4343
:102010003B6913403B613B685B6803221A407B6964
:102020005B009A4013003A6913433B617B683A694D
:102030001A607B68DB683B617B695B0003229A4026
:102040001300DA433B6913403B613B689A687B6944
:102050005B009A4013003A6913433B617B683A691D
:10206000DA603B685A6880235B05134000D1A0E02A
:10207000574B5A6B564B01210A435A63554A7B69A9
:102080009B0802339B009B583B617B6903221340F2
:102090009B000F229A401300DA433B6913403B61D7
:1020A0007A68A023DB059A421FD07B684A4A934294
:1020B00019D07B68494A934213D07B68484A9342BF
:1020C0000DD07B68474A934207D07B68464A9342CB
:1020D00001D105230AE0062308E0042306E00323D8
:1020E00004E0022302E0012300E000237A690321D7
:1020F0000A40920093403A6913433B6135497B693A
:102100009B0802339B003A695A50384B1B683B616D
:10211000FB68DA433B6913403B613B685A688023A4
:102120005B02134003D03A69FB6813433B612F4BBA
:102130003A691A602D4B5B683B61FB68DA433B6987
:1021400013403B613B685A6880239B02134003D0D5
:102150003A69FB6813433B61244B3A695A60234B4D
:102160009B683B61FB68DA433B6913403B613B681A
:102170005A6880235B03134003D03A69FB6813431A
:102180003B611A4B3A699A60184BDB683B61FB680C
:10219000DA433B6913403B613B685A6880239B03E9
:1021A000134003D03A69FB6813433B610F4B3A6914
:1021B000DA607B6901337B613B681A687B69DA40CE
:1021C000131E00D0A2E6C046C046BD4606B080BD84
:1021D00000100240000001400004005000080050C0
:1021E000000C005000100050001C00500004014082
:1021F00080B584B000AF78600A00BB1C1A807B6891
:102200001B69BA1C1288134004D00F23FB1801224B
:102210001A7003E00F23FB1800221A700F23FB181B
:102220001B781800BD4604B080BD80B582B000AFF9
:10223000786008001100BB1C021C1A807B1C0A1C61
:102240001A707B1C1B78002B04D0BB1C1A887B687F
:102250009A6103E0BB1C1A887B689A62C046BD463F
:1022600002B080BD80B582B000AF78600A00BB1CB0
:102270001A807B685A69BB1C1B885A407B685A616C
:10228000C046BD4602B080BD80B582B000AF02003E
:10229000BB1D1A80094B5B69BA1D1288134008D018
:1022A000064BBA1D12885A61BB1D1B88180002F02C
:1022B00021FEC046BD4602B080BDC04600040140BC
:1022C00080B500AF044B1A68034B10218A431A6093
:1022D000C046BD4680BDC0460070004080B584B099
:1022E00000AF78600A00FB1C1A700023FB60134BE0
:1022F0001B68FB60FB6803229343FB60FA687B6802
:102300001343FB600D4BFA681A600D4B1A690C4BB6
:1023100004218A431A61FB1C1B78012B01D130BFB9
:1023200005E040BFC04620BFC04620BFC046C046F3
:10233000C046C046BD4604B080BDC04600700040E7
:1023400000ED00E080B584B000AF78600A00FB1CAF
:102350001A700023FB60154B1B68FB60FB680322AF
:102360009343FB60FA687B681343FB600F4BFA688A
:102370001A600F4B1A690E4B04210A431A61FB1CA9
:102380001B78012B01D130BF05E040BFC04620BF04
:10239000C04620BFC046064B1A69054B04218A433C
:1023A0001A61C046BD4604B080BDC0460070004002
:1023B00000ED00E080B500AF044B1A68034B8021AC
:1023C000C9000A431A60C046BD4680BD0070004087
:1023D00080B500AF044B1A68034B802189000A4383
:1023E0001A60C046BD4680BD00700040B0B58AB0DE
:1023F00000AF78607B68002B02D1012300F0BBFBAB
:10240000C84BDB680C221340FB61C64BDA688023A3
:102410005B021340BB617B681B680122134000D143
:102420007EE0FB69082B07D0FB690C2B12D1BA693F
:1024300080235B029A420DD1BA4B1A6880239B021B
:10244000134000D16BE07B685B68002B67D10123F0
:1024500000F091FB7B685A6880235B029A4207D1A7
:10246000B04B1A68AF4B802149020A431A6027E03B
:102470007B685A68A023DB029A420ED1A94B1A68E6
:10248000A84B8021C9020A431A60A64B1A68A54BC3
:10249000802149020A431A6012E0A24B1A68A14B3C
:1024A000A1490A401A609F4B1A6880235B021340BF
:1024B000FB60FB689B4B1A689A4B9C490A401A6068
:1024C0007B685B68002B15D0FFF7ECFB03007B619A
:1024D00009E0FFF7E7FB02007B69D31A642B02D9FE
:1024E000032300F048FB8F4B1A6880239B021340A4
:1024F000EFD015E0FFF7D6FB03007B6108E0FFF7A4
:10250000D1FB02007B69D31A642B01D9032332E388
:10251000844B1A6880239B021340F0D100E0C04630
:102520007B681B680222134000D198E07B68DB685F
:102530007B627B6A2022134009D07A4B1A68794B60
:1025400020210A431A607B6A202293437B62FB6945
:10255000042B05D0FB690C2B3DD1BB69002B3AD174
:10256000704B1B680422134004D07B6A002B01D1FE
:10257000012300E36B4B5B686D4A134019007B68D5
:102580001B691A02674B0A435A60664B1B68092293
:1025900093431900634B7A6A0A431A6000F020FCE7
:1025A0000100604BDB681B090F221340614AD35CBA
:1025B0000A00DA40604B1A6013257C190020FFF7EF
:1025C0003BFB030023702A00BB181B78002B46D06E
:1025D000BB181B78CFE27B6A002B27D0514B1B68BE
:1025E0000922934319004F4B7A6A0A431A60FFF796
:1025F00059FB03007B6108E0FFF754FB02007B6995
:10260000D31A022B01D90323B5E2464B1B680422DF
:102610001340F1D0434B5B68454A134019007B6877
:102620001B691A023F4B0A435A6018E03D4B1A6877
:102630003C4B01218A431A60FFF734FB03007B61A6
:1026400008E0FFF72FFB02007B69D31A022B01D9A8
:10265000032390E2334B1B6804221340F1D17B68C3
:102660001B681022134000D19FE0FB69002B3FD173
:102670002C4B1A6880239B00134005D07B68DB69D4
:10268000002B01D1012376E2264B5B682B4A1340D5
:1026900019007B685A6A234B0A435A60214B5B68D6
:1026A0001B02190A7B681B6A1A061E4B0A435A60F2
:1026B0007B685B6A5B0B0133802212029A40194BE4
:1026C000DB681B090F210B401A49CB5CDA401A4B1F
:1026D0001A6013257C190020FFF7AEFA030023705F
:1026E0002A00BB181B78002B5FD0BB181B7842E276
:1026F0007B68DB69002B3ED00A4B1A68094B8021AE
:1027000049000A431A60FFF7CDFA03007B6117E026
:10271000FFF7C8FA02007B69D31A022B10D90323F2
:1027200029E2C04600100240FFFFFEFFFFFFFBFF53
:10273000FFE0FFFF509B00081C000020FF1FFFFF71
:10274000CA4B1A6880239B001340E1D0C74B5B68DB
:10275000C74A134019007B685A6AC44B0A435A603F
:10276000C24B5B681B02190A7B681B6A1A06BF4BC7
:102770000A435A6019E0BD4B1A68BC4BBD490A4078
:102780001A60FFF78FFA03007B6108E0FFF78AFA0F
:1027900002007B69D31A022B01D90323EBE1B34B6F
:1027A0001A6880239B001340F0D17B681B680822C5
:1027B000134036D07B685B69002B19D0AB4B1A6D88
:1027C000AA4B01210A431A65FFF76CFA03007B61EB
:1027D00008E0FFF767FA02007B69D31A022B01D9E0
:1027E0000323C8E1A14B1B6D02221340F1D018E076
:1027F0009E4B1A6D9D4B01218A431A65FFF752FAD1
:1028000003007B6108E0FFF74DFA02007B69D31AF1
:10281000022B01D90323AEE1944B1B6D022213401E
:10282000F1D17B681B680422134000D1AEE0232065
:102830003B1800221A708D4B9A6B80235B05134066
:1028400009D18A4B9A6B894B802149050A439A63C7
:102850003B1801221A70884B1A6880235B001340D2
:102860001AD1854B1A68844B802149000A431A60AB
:10287000FFF718FA03007B6108E0FFF713FA020084
:102880007B69D31A642B01D9032374E17A4B1A684C
:1028900080235B001340F0D07B689A6880235B0044
:1028A0009A4207D1714B1A6D704B802149000A433F
:1028B0001A6531E07B689B68002B0CD16B4B1A6D5D
:1028C0006A4B6C490A401A65684B1A6D674B6B4935
:1028D0000A401A6520E07B689A68A023DB009A42D0
:1028E0000ED1624B1A6D614B8021C9000A431A65F3
:1028F0005E4B1A6D5D4B802149000A431A650BE05F
:102900005A4B1A6D594B5B490A401A65574B1A6D61
:10291000564B5A490A401A657B689B68002B15D0B4
:10292000FFF7C0F903007B6109E0FFF7BBF9020084
:102930007B69D31A524A934201D903231BE14B4BC3
:102940001A6D80239B001340EFD014E0FFF7AAF923
:1029500003007B6109E0FFF7A5F902007B69D31A48
:10296000474A934201D9032305E1404B1A6D802366
:102970009B001340EFD12323FB181B78012B05D1BB
:102980003A4B9A6B394B3F490A409A637B681B6804
:102990002022134049D07B689B69002B26D0334B03
:1029A0009A68324B01210A439A60304B5A6B2F4B85
:1029B00001210A435A63344B1A6A334B802189013F
:1029C0000A431A62FFF76EF903007B6108E0FFF724
:1029D00069F902007B69D31A022B01D90323CAE0EB
:1029E000224B9B6802221340F1D01EE01F4B9A68D5
:1029F0001E4B01218A439A60234B1A6A224B2349BA
:102A00000A401A62FFF74EF903007B6108E0FFF706
:102A100049F902007B69D31A022B01D90323AAE0EA
:102A2000124B9B6802221340F1D17B689B6A002BFA
:102A300000D19FE0FB690C2B00D178E07B689B6A9A
:102A4000022B59D1094B1A68084B11490A401A60E8
:102A5000FFF728F903007B611CE0FFF723F9020070
:102A60007B69D31A022B15D9032384E0001002409E
:102A7000FF1FFFFFFFFEFFFF00700040FFFBFFFF97
:102A800088130000FFFFFFEF00000140FFDFFFFFA2
:102A9000FFFFFFFE3A4B1A6880239B041340DCD1F2
:102AA000374BDB68374A134019007B68DA6A7B686A
:102AB0001B6B1A437B685B6B1A43314B0A43DA602A
:102AC0002F4B1A682E4B802149040A431A60FFF7E6
:102AD000E9F803007B6108E0FFF7E4F802007B6996
:102AE000D31A022B01D9032345E0254B1A68802312
:102AF0009B041340F0D03DE0214B1A68204B224943
:102B00000A401A60FFF7CEF803007B6108E0FFF788
:102B1000C9F802007B69D31A022B01D903232AE0EA
:102B2000174B1A6880239B041340F0D122E07B6886
:102B30009B6A012B01D101231DE0114BDB68BB61B6
:102B4000BA6980235B021A407B68DB6A9A420FD124
:102B5000BA69F0239B031A407B681B6B9A4207D12A
:102B6000BA69C0231B041A407B685B6B9A4201D090
:102B7000012300E000231800BD460AB0B0BDC046E6
:102B800000100240FFFF02FFFFFFFFFEB0B584B060
:102B900000AF786039607B68002B01D101230DE123
:102BA000884B1B68012213403A689A4211D9854B21
:102BB0001B68012293431900824B3A680A431A604A
:102BC000804B1B68012213403A689A4201D00123CE
:102BD000F4E07B681B680222134009D07A4BDB6863
:102BE000F022934319007B689A68774B0A43DA60B6
:102BF0007B681B680122134000D189E07B685B6819
:102C0000022B07D1704B1A6880239B02134020D1FE
:102C10000123D3E07B685B68032B07D16A4B1A68FA
:102C200080239B04134014D10123C7E07B685B68B9
:102C3000012B06D1644B1B680422134009D10123E8
:102C4000BCE0614B1A6880239B00134001D1012333
:102C5000B4E05D4BDB680322934319007B685A683C
:102C6000594B0A43DA60FFF71DF80300FB607B68ED
:102C70005B68022B11D109E0FFF714F80200FB6832
:102C8000D31A524A934201D9032397E04E4BDB6893
:102C90000C221340082BEFD13AE07B685B68032BD2
:102CA00011D109E0FEF7FEFF0200FB68D31A474A84
:102CB000934201D9032381E0434BDB680C2213408C
:102CC0000C2BEFD124E07B685B68012B1BD109E062
:102CD000FEF7E8FF0200FB68D31A3C4A934201D991
:102CE00003236BE0384BDB680C221340042BEFD13D
:102CF0000EE0FEF7D7FF0200FB68D31A334A934277
:102D000001D903235AE0304BDB680C221340F0D189
:102D10002C4B1B68012213403A689A4211D2294B6E
:102D20001B68012293431900264B3A680A431A6034
:102D3000244B1B68012213403A689A4201D00123B8
:102D40003CE07B681B680422134009D01E4BDB6803
:102D50001F4A134019007B68DA681B4B0A43DA608C
:102D60007B681B68082213400AD0174BDB68194A9E
:102D7000134019007B681B69DA00134B0A43DA60C1
:102D800000F02EF80100104BDB681B090F221340E6
:102D9000114AD35C0A00DA40104B1A600B257C19EB
:102DA0000020FEF749FF030023702A00BB181B78A0
:102DB000002B02D0BB181B7800E000231800BD4692
:102DC00004B0B0BD00200240001002408813000093
:102DD000FFF8FFFFFFC7FFFF509B00081C0000200B
:102DE00080B586B000AF394BDB68FB60FB680C2216
:102DF00013400C2B13D056D8042B02D0082B0BD029
:102E000051E0324B1B681022134002D0304B3B6123
:102E100057E0304B3B6154E02F4B3B6151E0FB6886
:102E20009B0C0F2213402D4AD35CBB60FB689B0DAB
:102E30000322134001337B60244BDA6880235B025A
:102E4000134009D0BB68244A534379681800FDF742
:102E50005BF903007B6123E01C4B1B6810221340CD
:102E60000FD0B9680A005201521A93019B1ADB0075
:102E70005B181B0279681800FDF746F903007B61B7
:102E80000EE0B9680A005201521A93019B1ADB0046
:102E90005B189B0279681800FDF736F903007B6127
:102EA0007B693B610DE0094B5B685B0B07221340BC
:102EB0003B603B680133802212029A4013003B6161
:102EC000C0463B691800BD4606B080BD00100240F8
:102ED00000093D000024F40000366E01689B0008E4
:102EE00080B500AF024B1B681800BD4680BDC046D0
:102EF0001C00002080B500AFFFF7F2FF0100064B79
:102F0000DB681B0A07221340044AD35CD9400B003C
:102F10001800BD4680BDC04600100240609B0008FE
:102F200080B500AFFFF7DCFF0100064BDB68DB0A72
:102F300007221340044AD35CD9400B001800BD4659
:102F400080BDC04600100240609B000880B586B07E
:102F500000AF78607B681B682022134006D17B6835
:102F60001A6880231B01134000D1DCE017203B18B6
:102F700000221A70A34B9A6B80235B05134009D182
:102F8000A04B9A6B9F4B802149050A439A633B18DB
:102F900001221A709C4B1A6880235B0013401AD1DF
:102FA000994B1A68984B802149000A431A60FEF732
:102FB00079FE03003B6108E0FEF774FE02003B6906
:102FC000D31A642B01D9032318E18F4B1A6880238D
:102FD0005B001340F0D08B4B1A68C0239B03134057
:102FE000FB607B685A68C0239B031340FA689A42CF
:102FF00007D17B689A68C0239B031340FA689A4202
:1030000013D07B685A68C0239B021A40C0239B02DE
:103010009A420AD17B4B1A6880239B021A40802374
:103020009B029A4201D10123E8E0764B1A6DC0233E
:103030009B021340FB60FB68002B49D07B685A68F9
:10304000C0239B021340FA689A4204D07B681B6835
:10305000202213400DD17B689A68C0239B02134045
:10306000FA689A4234D07B681A6880231B011340A7
:103070002ED0644B1B6D654A1340FB60614B1A6D8B
:10308000604B802109030A431A655E4B1A6D5D4B44
:103090005F490A401A655B4BFA681A65FA68802333
:1030A0005B00134014D0FEF7FDFD03003B6109E017
:1030B000FEF7F8FD02003B69D31A564A934201D944
:1030C00003239BE04F4B1A6D80239B001340EFD0EE
:1030D0007B685A68C0239B021A40C0239B029A4215
:1030E0000CD1484B1B684C4A134019007B685A6846
:1030F000C0239B031A40434B0A431A60414B196D8E
:103100007B685A68C0239B021A403E4B0A431A65EB
:103110001723FB181B78012B05D13A4B9A6B394BBF
:103120003E490A409A637B681B680122134009D01C
:10313000344BDB6C0322934319007B68DA68314B14
:103140000A43DA647B681B680222134009D02D4BC6
:10315000DB6C0C22934319007B681A69294B0A43E4
:10316000DA647B681B680422134009D0254BDB6CB2
:103170002B4A134019007B685A69224B0A43DA64D0
:103180007B681B680822134009D01E4BDB6C254A64
:10319000134019007B689A691A4B0A43DA647B680A
:1031A0001A6880235B00134009D0164BDB6C174A6A
:1031B000134019007B68DA69124B0A43DA647B68B2
:1031C0001B684022134009D00E4BDB6C164A13409B
:1031D00019007B685A6A0B4B0A43DA647B681B68E8
:1031E0008022134009D0074BDB6C104A13401900B2
:1031F0007B681A6A034B0A43DA6400231800BD4651
:1032000006B080BD0010024000700040FFFFFCFFD0
:10321000FFFFF7FF88130000FFFFCFFFFFFFFFEF67
:10322000FFF3FFFFFFCFFFFFFFFFFFFBFFFFF3FFFA
:1032300080B582B000AF78607B68002B01D101239C
:103240008EE07B6821229B5CDBB2002B07D17B6880
:103250002022002199547B68180000F087F87B68D1
:103260002122022199547B681B68CA225A627B681A
:103270001B6853225A627B68180000F0AEFC031EE4
:1032800009D07B681B68FF225A627B6821220421D7
:103290009954012364E07B681B689A687B681B680B
:1032A00031490A409A607B681B6899687B685A6854
:1032B0007B681B691A437B689B691A437B681B68A0
:1032C0000A439A607B681B687A68D2681A617B68D7
:1032D0001B6819697B689B681A047B681B680A4332
:1032E0001A617B681B68DA687B681B6880218A43E7
:1032F000DA607B681B68DA6C7B681B6803218A4391
:10330000DA647B681B68D96C7B68DA697B685B6907
:103310001A437B681B680A43DA647B681B689B68F6
:103320002022134013D17B68180000F02FFC031EED
:103330000DD07B681B68FF225A627B682122042122
:1033400099547B68202200219954012308E07B686E
:103350001B68FF225A627B682122012199540023B5
:103360001800BD4602B080BDBFFF8FFF80B582B0A0
:1033700000AF7860C046BD4602B080BD90B587B052
:1033800000AFF860B9607A60FB6820229B5C012B7B
:1033900001D10223ADE0FB68202201219954FB6892
:1033A0002122022199547B68002B25D1FB681B68E0
:1033B0009B684022134002D1BB680022DA70BB68D0
:1033C0001B78180000F033FC03001C04BB685B781A
:1033D000180000F02CFC03001B021C43BB689B7808
:1033E000180000F024FC030022001A43BB68DB78BD
:1033F0001B0413437B6117E0FB681B689B6840223A
:10340000134002D1BB680022DA70BB681B781A0433
:10341000BB685B781B021343BA6892781A43BB6897
:10342000DB781B0413437B61FB681B68CA225A626A
:10343000FB681B6853225A62FB68180000F0CDFB42
:10344000031E0DD0FB681B68FF225A62FB68212215
:1034500004219954FB68202200219954012348E05B
:10346000FB681B687A6925490A401A60FB681B687B
:103470009A68FB681B6822490A409A60FB681B68CF
:103480009968BB68DA68BB681B691A43FB681B68EC
:103490000A439A60FB681B68DA68FB681B68802136
:1034A0008A43DA60FB681B689B682022134013D1B3
:1034B000FB68180000F06AFB031E0DD0FB681B6858
:1034C000FF225A62FB68212204219954FB682022C2
:1034D0000021995401230CE0FB681B68FF225A620B
:1034E000FB68212201219954FB6820220021995474
:1034F00000231800BD4607B090BDC0467F7F7F0007
:10350000FFFFFBFF80B586B000AFF860B9607A605E
:10351000FB681B689A6ABB685A60FB681B681B697A
:103520005B045A0CBB689A60FB681B681B68224AE4
:1035300013407B617B691B0CDBB23F221340DAB284
:10354000BB681A707B691B0ADBB27F221340DAB2B8
:10355000BB685A707B69DBB27F221340DAB2BB686A
:103560009A707B691B0CDBB240221340DAB2BB6855
:10357000DA707B68002B1AD1BB681B78180000F04A
:103580007EFB03001A00BB681A70BB685B781800EA
:1035900000F075FB03001A00BB685A70BB689B788B
:1035A000180000F06CFB03001A00BB689A7000233F
:1035B0001800BD4606B080BD7F7F7F0090B587B004
:1035C00000AFF860B9607A60FB6820229B5C012B39
:1035D00001D1022399E0FB68202201219954FB6864
:1035E0002122022199547B68002B0ED1BB685B78A5
:1035F0001A001023134008D0BB685B781022934355
:10360000DBB20A33DAB2BB685A707B68002B1CD17C
:10361000BB68DB78180000F00AFB03001C04BB68E1
:103620005B78180000F003FB03001B021C43BB681F
:103630009B78180000F0FBFA030022001A43BB68D5
:103640001B785B0313437B610EE0BB68DB781A04D5
:10365000BB685B781B021343BA6892781A43BB6855
:103660001B785B0313437B61FB681B68CA225A62A9
:10367000FB681B6853225A62FB68180000F0ADFA21
:10368000031E0DD0FB681B68FF225A62FB682122D3
:1036900004219954FB68202200219954012334E02D
:1036A000FB681B687A691B490A405A60FB681B6803
:1036B000DA68FB681B6880218A43DA60FB681B6854
:1036C0009B682022134013D1FB68180000F05EFABB
:1036D000031E0DD0FB681B68FF225A62FB68212283
:1036E00004219954FB6820220021995401230CE005
:1036F000FB681B68FF225A62FB6821220121995452
:10370000FB6820220021995400231800BD4607B011
:1037100090BDC0463FFFFF0080B586B000AFF860A7
:10372000B9607A60FB681B685B68214A13407B6163
:103730007B691B0CDAB2BB68DA707B691B0ADBB2EF
:103740001F221340DAB2BB685A707B69DBB23F229A
:103750001340DAB2BB689A707B695B0BDBB207225D
:103760001340DAB2BB681A707B68002B1AD1BB68B1
:10377000DB78180000F083FA03001A00BB68DA70E7
:10378000BB685B78180000F07AFA03001A00BB6887
:103790005A70BB689B78180000F071FA03001A0099
:1037A000BB689A7000231800BD4606B080BDC046B5
:1037B0003FFFFF0090B589B000AFF860B9607A6054
:1037C000FB6820229B5C012B01D1022330E1FB68C6
:1037D000202201219954FB682122022199547B68FF
:1037E000002B36D1FB681B689B684022134002D136
:1037F000BB680022DA70BB681B78180000F017FA6B
:1038000003001C04BB685B78180000F010FA03008A
:103810001B021C43BB689B78180000F008FA0300E9
:1038200022001A43BB68DB781B041A431400BB68F0
:1038300020229B5C180000F0FAF903001B0622000E
:103840001A43BB68DB691A43BB685B691343FB61BE
:1038500022E0FB681B689B684022134002D1BB68D2
:103860000022DA70BB681B781A04BB685B781B0205
:103870001343BA6892781A43BB68DB781B041A4377
:10388000BB6820215B5C1B061A43BB68DB691A43DB
:10389000BB685B691343FB61BB685A68BB689B6983
:1038A0001343BB61FB681B68CA225A62FB681B6832
:1038B00053225A62BB685A6A80235B009A424ED1F7
:1038C000FB681B689A68FB681B685B490A409A6042
:1038D000FB681B68DB68FF221A40FB681B685749BE
:1038E0000A43DA60FEF7DEF903007B6116E0FEF7BB
:1038F000D9F902007B69D21AFA239B009A420DD9AA
:10390000FB681B68FF225A62FB682122032199543D
:10391000FB68202200219954032389E0FB681B687F
:10392000DB6801221340E2D0FB681B68FA69DA61A8
:10393000FB681B68BA695A64FB681B689A68FB6875
:103940001B68802149000A439A60FB681B689A68DB
:10395000FB681B68802149010A439A604DE0FB68BF
:103960001B689A68FB681B6835490A409A60FB68C7
:103970001B68DB68FF221A40FB681B6831490A4359
:10398000DA60FEF78FF903007B6116E0FEF78AF933
:1039900002007B69D21AFA239B009A420DD9FB6878
:1039A0001B68FF225A62FB68212203219954FB689D
:1039B00020220021995403233AE0FB681B68DB684E
:1039C00002221340E2D0FB681B68FA691A62FB68A6
:1039D0001B68BA699A64FB681B689A68FB681B6875
:1039E000802189000A439A60FB681B689A68FB681B
:1039F0001B68802189010A439A60134B1A68124B95
:103A0000802189020A431A600F4B9A680E4B80216D
:103A100089020A439A60FB681B68FF225A62FB68AE
:103A2000212201219954FB6820220021995400236E
:103A30001800BD4609B090BDFFFEFFFF7FFEFFFFEF
:103A4000FFFDFFFF7FFDFFFF0004014080B584B054
:103A500000AF786039607B6820229B5C012B01D12C
:103A6000022386E07B682022012199547B68212271
:103A7000022199547B681B68CA225A627B681B68C2
:103A800053225A623A6880235B009A4232D17B68A3
:103A90001B689A687B681B6838490A409A607B6893
:103AA0001B689A687B681B6835490A409A60FEF774
:103AB000F9F80300FB6016E0FEF7F4F80200FB687B
:103AC000D21AFA239B009A420DD97B681B68FF2209
:103AD0005A627B682122032199547B6820220021AD
:103AE0009954032345E07B681B68DB68012213407F
:103AF000E2D031E07B681B689A687B681B682149CB
:103B00000A409A607B681B689A687B681B681E493C
:103B10000A409A60FEF7C6F80300FB6016E0FEF765
:103B2000C1F80200FB68D21AFA239B009A420DD911
:103B30007B681B68FF225A627B682122032199540B
:103B40007B68202200219954032312E07B681B68C4
:103B5000DB6802221340E2D07B681B68FF225A62B6
:103B60007B682122012199547B68202200219954ED
:103B700000231800BD4604B080BDC046FFFEFFFF15
:103B8000FFEFFFFFFFFDFFFFFFDFFFFF80B584B00A
:103B900000AF78607B681B68DA687B681B68A021CF
:103BA0008A43DA60FEF77EF80300FB600AE0FEF766
:103BB00079F80200FB68D21AFA239B009A4201D9D5
:103BC000032306E07B681B68DB6820221340EED0ED
:103BD00000231800BD4604B080BD80B584B000AF9E
:103BE00078607B681B68DB68402213401AD17B68D1
:103BF0001B6801225242DA60FEF754F80300FB60B2
:103C00000AE0FEF74FF80200FB68D21AFA239B0085
:103C10009A4201D9032306E07B681B68DB684022D7
:103C20001340EED000231800BD4604B080BD80B51F
:103C300084B000AF0200FB1D1A700023FB600B2351
:103C4000FB18FA1D12781A7008E0FB680133FB605C
:103C50000B22BB18BA1812780A3A1A700B217B187B
:103C60001B78092BF1D8FB68DBB21B01DAB27B1899
:103C70001B781343DBB21800BD4604B080BD80B58D
:103C800084B000AF0200FB1D1A70FB1D1B781B09DE
:103C9000DBB21A0013009B009B185B00FB60FB6803
:103CA000DAB2FB1D1B780F210B40DBB2D318DBB25D
:103CB0001800BD4604B080BD80B582B000AF78600A
:103CC0007B6820229B5C012B01D1022324E07B68CE
:103CD0002022012199547B682122022199547B687A
:103CE0001B68CA225A627B681B6853225A627B682F
:103CF0001B689A687B681B6820210A439A607B686E
:103D00001B68FF225A627B682122012199547B683B
:103D100020220021995400231800BD4602B080BD26
:103D200080B582B000AF78607B68002B01D10123A1
:103D300059E07B6800229A627B6851229B5CDBB26F
:103D4000002B07D17B685022002199547B68180012
:103D500000F079F87B685122022199547B681B6836
:103D60001A687B681B6840218A431A607B685A681E
:103D70007B689B681A437B68DB681A437B681B6916
:103D80001A437B685B691A437B68996980239B00AF
:103D90000B401A437B68DB691A437B681B6A1A4332
:103DA00011007B689A6A7B681B680A431A607B680B
:103DB0009B691B0C0422134019007B685A6A7B68BC
:103DC0001B680A435A607B681B68DA697B681B685A
:103DD00007490A40DA617B6800225A657B685122F4
:103DE0000121995400231800BD4602B080BDC04691
:103DF000FFF7FFFF80B582B000AF78607B68002BD3
:103E000001D101231BE07B685122022199547B6878
:103E10001B681A687B681B6840218A431A607B68AC
:103E2000180000F018F87B6800225A657B68512260
:103E3000002199547B6850220021995400231800D6
:103E4000BD4602B080BD80B582B000AF7860C0468C
:103E5000BD4602B080BD80B582B000AF7860C0467C
:103E6000BD4602B080BD000080B582B000AF786072
:103E70007B68002B01D1012344E07B685B6F002B42
:103E800007D17B687022002199547B68180005F0E7
:103E9000D3FB7B6824225A677B681B681A687B689F
:103EA0001B6801218A431A607B68180000F030F813
:103EB0000300012B01D1012324E07B685B6A002B06
:103EC00003D07B68180000F059FB7B681B685A68B8
:103ED0007B681B680D490A405A607B681B689A68BA
:103EE0007B681B682A218A439A607B681B681A6872
:103EF0007B681B6801210A431A607B68180000F088
:103F0000F1FB03001800BD4602B080BDFFB7FFFF04
:103F1000B0B58EB000AFF8611B2318229446BC44A4
:103F2000634410221A700023FB6213231822944664
:103F3000BC44634400221A7000237B62FB699A68C8
:103F4000FB691B691A43FB695B691A43FB69DB69FF
:103F500013437B63FB691B681B68B04A134019005D
:103F6000FB691B687A6B0A431A60FB691B685B6814
:103F7000AB4A13401900FB69DA68FB691B680A4306
:103F80005A60FB699B697B63FB691B68A54A934286
:103F900004D0FB691B6A7A6B13437B63FB691B6864
:103FA0009B68A14A13401900FB691B687A6B0A439E
:103FB0009A60FB691B689D4A934236D19C4BDB6C2F
:103FC00003221340032B20D027D8022B0DD024D856
:103FD000002B02D0012B10D01FE01B231822944687
:103FE000BC44634401221A70C5E01B231822944686
:103FF000BC44634402221A70BDE01B23182294467D
:10400000BC44634404221A70B5E01B231822944672
:10401000BC44634408221A70ADE01B231822944666
:10402000BC44634410221A70A5E0FB691B68814AF6
:10403000934236D17E4BDB6C0C2213400C2B20D0EC
:1040400027D8082B0DD024D8002B02D0042B10D059
:104050001FE01B2318229446BC44634400221A70BC
:1040600089E01B2318229446BC44634402221A7040
:1040700081E01B2318229446BC44634404221A7036
:1040800079E01B2318229446BC44634408221A702A
:1040900071E01B2318229446BC44634410221A701A
:1040A00069E0FB691B68644A934207D11B2318220D
:1040B0009446BC44634400221A705CE0FB691B68B0
:1040C0005E4A934207D11B2318229446BC446344A2
:1040D00000221A704FE0FB691B68524A934243D199
:1040E000534BDA6CC0231B011340C02212019342D0
:1040F0002AD0C022120193422ED88022120193426C
:1041000012D080221201934226D8002B04D08022A4
:10411000D200934210D01FE01B2318229446BC44C7
:10412000634400221A7026E01B2318229446BC44E4
:10413000634402221A701EE01B2318229446BC44DA
:10414000634404221A7016E01B2318229446BC44D0
:10415000634408221A700EE01B2318229446BC44C4
:10416000634410221A7006E01B2318229446BC44B4
:10417000634410221A70FB691B682A4A934200D0DC
:104180009DE01B2318229446BC4463441B78082BF3
:104190001DD020DC042B15D01DDC002B02D0022BFF
:1041A00005D018E0FEF7A6FE03007B621BE0204B63
:1041B0001B681022134002D0214B7B6213E0214B7D
:1041C0007B6210E0FEF70CFE03007B620BE08023B5
:1041D0001B027B6207E0132318229446BC4463440D
:1041E00001221A70C0467B6A002B00D1A8E1FB694E
:1041F0005A6813005B009B187A6A9A4205D3FB69E0
:104200005B681B037A6A9A421ED9132318229446CC
:10421000BC44634401221A7092E1C046F369FFEF87
:10422000FFCFFFFF00480040FFF4FFFF00380140D0
:104230000010024000440040004C0040005000408C
:1042400000093D000024F4007B6A3B6100237B6190
:1042500039697A690B001B0E100005021D430B0023
:104260001C02FB695B685B08BB600023FB60B868ED
:10427000F96800196941FB695B683B6000237B605A
:104280003A687B68FCF7F4F802000B001300FB624D
:10429000FA6AC0239B009A4209D3FA6A80235B031F
:1042A0009A4204D2FB691B68FA6ADA6048E1132378
:1042B00018229446BC44634401221A7040E1FB6911
:1042C000DA6980231B029A4200D0AAE01B2318223D
:1042D0009446BC4463441B78082B6DD89A00A04BCD
:1042E000D3181B689F46FEF705FE03005A00FB69C2
:1042F0005B685B08D218FB695B6819001000FBF76C
:1043000003FF03009BB2FB625EE0FEF709FE0300C1
:104310005A00FB695B685B08D218FB695B6819008F
:104320001000FBF7F1FE03009BB2FB624CE08D4BEB
:104330001B68102213400ED0FB695B685B088A4A39
:104340009A18FB695B6819001000FBF7DDFE03009B
:104350009BB2FB6238E0FB695B685B08834A9A1892
:10436000FB695B6819001000FBF7CEFE03009BB2EF
:10437000FB6229E0FEF734FD03005A00FB695B682D
:104380005B08D218FB695B6819001000FBF7BCFEE4
:1043900003009BB2FB6217E0FB695B685B0880224D
:1043A00052029A18FB695B6819001000FBF7ACFE1B
:1043B00003009BB2FB6207E0132318229446BC441F
:1043C000634401221A70C046FB6A0F2B21D9FA6A96
:1043D00080235B029A421CD2FB6A9AB20A201824FC
:1043E0003B191B180F218A431A80FB6A5B089BB29A
:1043F0000722134099B23B191B183A191218128858
:104400000A431A80FB691B683A1912181288DA608D
:1044100096E0132318229446BC44634401221A7088
:104420008EE01B2318229446BC4463441B78082B5F
:104430006AD89A004E4BD3181B689F46FEF75AFD68
:104440000200FB695B685B08D218FB695B681900B6
:104450001000FBF759FE03009BB2FB625CE0FEF725
:104460005FFD0200FB695B685B08D218FB695B6853
:1044700019001000FBF748FE03009BB2FB624BE003
:10448000384B1B68102213400ED0FB695B685B0839
:10449000384A9A18FB695B6819001000FBF734FE74
:1044A00003009BB2FB6237E0FB695B685B08324A42
:1044B0009A18FB695B6819001000FBF725FE0300E2
:1044C0009BB2FB6228E0FEF78BFC0200FB695B6895
:1044D0005B08D218FB695B6819001000FBF714FE3B
:1044E00003009BB2FB6217E0FB695B685B088022FC
:1044F00012029A18FB695B6819001000FBF704FEB2
:1045000003009BB2FB6207E0132318229446BC44CD
:10451000634401221A70C046FB6A0F2B09D9FA6A5C
:1045200080235B029A4204D2FB691B68FA6ADA6054
:1045300006E0132318229446BC44634401221A70F7
:10454000FB6900221A66FB6900225A6613231822AF
:104550009446BC4463441B781800BD460EB0B0BD01
:10456000EC9800080010024000127A000048E801B0
:104570001099000800093D000024F40080B582B0C5
:1045800000AF78607B685B6A012213400BD07B68C8
:104590001B685B684A4A134019007B689A6A7B680B
:1045A0001B680A435A607B685B6A022213400BD087
:1045B0007B681B685B68434A134019007B68DA6AB2
:1045C0007B681B680A435A607B685B6A042213405D
:1045D0000BD07B681B685B683B4A134019007B6803
:1045E0001A6B7B681B680A435A607B685B6A082207
:1045F00013400BD07B681B685B68344A134019007A
:104600007B685A6B7B681B680A435A607B685B6AED
:10461000102213400BD07B681B689B682C4A134008
:1046200019007B689A6B7B681B680A439A607B68F9
:104630005B6A202213400BD07B681B689B68254A6D
:10464000134019007B68DA6B7B681B680A439A6029
:104650007B685B6A402213401DD07B681B685B68E7
:104660001D4A134019007B681A6C7B681B680A435B
:104670005A607B681A6C80235B039A420BD17B687B
:104680001B685B68154A134019007B685A6C7B688D
:104690001B680A435A607B685B6A802213400BD018
:1046A0007B681B685B680E4A134019007B689A6C34
:1046B0007B681B680A435A60C046BD4602B080BD95
:1046C000FFFFFDFFFFFFFEFFFFFFFBFFFF7FFFFF81
:1046D000FFEFFFFFFFDFFFFFFFFFEFFFFFFF9FFF8A
:1046E000FFFFF7FF80B586B002AF78607B680022DD
:1046F000DA67FDF7D7FA0300FB607B681B681B686D
:1047000008221340082B0CD1FB68802291037868A3
:10471000154A0092002200F029F8031E01D003235D
:104720001EE07B681B681B6804221340042B0CD11D
:10473000FB688022D10378680B4A0092002200F0C7
:1047400015F8031E01D003230AE07B6820225A6774
:104750007B6820229A677B6870220021995400238D
:104760001800BD4604B080BDFFFFFF0180B584B0D6
:1047700000AFF860B9603B60FB1D1A7029E0BB69AF
:10478000013326D0FDF78EFA02003B68D31ABA69CE
:104790009A4202D3BB69002B1BD1FB681B681A68C5
:1047A000FB681B6815490A401A60FB681B689A6819
:1047B000FB681B6801218A439A60FB6820225A67C4
:1047C000FB6820229A67FB6870220021995403231A
:1047D0000FE0FB681B68DB69BA681340BA68D31A3C
:1047E0005A425341DBB21A00FB1D1B789A42C6D0D5
:1047F00000231800BD4604B080BDC0465FFEFFFF29
:1048000080B584B000AF7860EFF31083FB60FA6886
:104810007B681A6072B6C046C046BD4604B080BD13
:1048200080B584B000AF78607B681B68FB60FB6874
:1048300083F31088C046C046BD4604B080BD00006A
:1048400080B582B002AF1A4B1B7801225340DBB215
:10485000002B03D0FDF7D0F900F03EF815480123F6
:1048600001930123009300230122262104F0E4F8A0
:1048700000F04AFC104801235B4201931D23009382
:104880001E231F22012100F0EDFF01F083FA084BE7
:104890001B7801225340DBB2002B05D0044B0122D0
:1048A0001A70012001F0C6FCC046BD4680BDC0465E
:1048B00054000020400000209003002080B500AF8D
:1048C000044B180001F0DCF801F002FBC046BD46C5
:1048D00080BDC0469003002080B59EB000AF3C4B29
:1048E0009A6B3B4B802149050A439A63394B1B68FD
:1048F000394A1A40374B802109010A431A60402186
:104900007B1805221A607B18802252025A607B189D
:10491000802252009A607B1802229A627B188022C1
:104920005202DA627B188022D2021A637B1880223C
:1049300012045A637B181800FDF758FD031E01D0BE
:1049400004F062FE2C217B180F221A607B180322D0
:104950005A607B1800229A607B180022DA607B186C
:1049600000221A617B1801211800FEF70FF9031EBF
:1049700001D004F049FE3B1D21221A603B1D00229C
:10498000DA603B1D802252025A603B1D1800FEF780
:10499000DDFA031E01D004F037FEFEF7A1FA020093
:1049A000FA2399001000FBF7AFFB03001800FDF796
:1049B0006EFA0420FDF778FA01235B420122002100
:1049C0001800FDF73FFAC046BD461EB080BDC04688
:1049D0000010024000700040FFE7FFFF80B500AF0D
:1049E00072B6C04600F0FAFA62B6C046C046BD468E
:1049F00080BD80B582B000AF78607B681800FDF79D
:104A00005BF9C046BD4602B080BD000090B58DB0D8
:104A100000AF78600C0010001900FB1C221C1A70FB
:104A2000BB1C021C1A707B1C0A1C1A70FB1C1B7816
:104A30005BB26F2B00DDD0E07B68FA1C12781A7035
:104A4000FB1C1B785BB2013300D1C5E07B681B788F
:104A50005BB2DBB21A000F23134001229A4013000D
:104A60009AB27B685A807B681B785BB21A00F0238D
:104A7000134010D17B68A022D2055A60584BDA6AE5
:104A8000574B01210A43DA62554BDB6A012213407E
:104A9000BB61BB6946E07B681B785BB21A00F02300
:104AA0001340102B0FD17B684E4A5A604C4BDA6A88
:104AB0004B4B02210A43DA62494BDB6A0222134064
:104AC0007B617B692EE07B681B785BB21A00F02368
:104AD0001340202B0FD17B68434A5A60404BDA6A5F
:104AE0003F4B04210A43DA623D4BDB6A0422134048
:104AF0003B613B6916E07B681B785BB21A00F023D0
:104B00001340302B0ED17B68384A5A60344BDA6A36
:104B1000334B08210A43DA62314BDB6A0822134027
:104B2000FB60FB687B685B881A001C217B181A609D
:104B30007A684023FB181B7893727B689B7A1A0073
:104B40007B189A607B180222DA60BB1C1B78002B52
:104B500003D17B1800225A602BE0BB1C1B78032B6F
:104B600004D11C23FB1803225A6022E0BB1C1B78D3
:104B7000022B11D17B1C1B78012B04D11C23FB18A9
:104B800012225A6003E01C23FB1802225A601C23E5
:104B9000FB187A6C1A610CE07B1C1B78012B04D18A
:104BA0001C23FB1811225A6003E01C23FB1801226E
:104BB0005A60BB1C1B78012B05D17A6C7B681100F5
:104BC000180000F00BF97B685B681C22BA18110012
:104BD0001800FDF78FF900E0C046BD460DB090BD4E
:104BE000001002400004005000080050000C00506B
:104BF00090B58DB000AFF860080011007B600B2409
:104C00003B19021C1A700A23FB180A1C1A70FB6855
:104C10001B785BB26F2B00DDD3E00023FB622B23FC
:104C2000FB1805221A707B68002B00D1C8E0FB68D6
:104C30007A681A61FB685B881A0014217B181A6075
:104C40003B191B78012B03D17B185F4A5A600DE09A
:104C50000B23FB181B78022B04D11423FB185B4A8F
:104C60005A6003E01423FB18594A5A60FB689B7A88
:104C70001A0014217B189A607B180222DA60FB6804
:104C80005B687A1811001800FDF734F90A23FB1845
:104C90001B78032B0ED010DC012B02DC002B03DA77
:104CA0000BE0022B03D008E00323FB6208E00223A1
:104CB000FB6205E00123FB6202E00023FB62C046C9
:104CC000FB685B8880221202934200D157E0802269
:104CD0001202934200DD57E08022D20193424ED06F
:104CE0008022D20193424FDC80229201934246D02F
:104CF00080229201934247DC8022520193423ED0AF
:104D00008022520193423FDC80221201934236D02E
:104D100080221201934237DC8022D20093422ED0AF
:104D20008022D20093422FDC80229200934226D030
:104D300080229200934227DC8022520093421ED0B0
:104D40008022520093421FDC802B18D01CDC202BC9
:104D500008DC002B18DD202B16D89A001D4BD31829
:104D60001B689F46402B0AD00EE02B23FB18052220
:104D70001A700AE02B23FB1806221A7005E02B2379
:104D8000FB1807221A7000E0C046FB681B785BB274
:104D9000DBB21A000F231A400F4B9200F968D15072
:104DA000F96A2B243B191B785BB200221800FDF72F
:104DB00049F83B191B785BB21800FDF758F800E082
:104DC000C046BD460DB090BD00001110000021107E
:104DD00000003110349900085800002080B582B0DE
:104DE00000AF786039607B681B785BB26F2B0FDC9B
:104DF0007B681B785BB2013309D07B6858687B689D
:104E00005B883A68D2B21900FDF70FFA00E0C0469D
:104E1000BD4602B080BD80B582B000AF78607B68CF
:104E20001B785BB26F2B10DC7B681B785BB20133A5
:104E300001D100230AE07B685A687B685B8819000F
:104E40001000FDF7D5F9030000E000231800BD466F
:104E500002B080BD80B500AF0120FDF715FA022039
:104E6000FDF712FAC046BD4680BD80B500AF0420F4
:104E7000FDF70AFA0820FDF707FAC046BD4680BDD7
:104E800080B500AF1020FDF7FFF92020FDF7FCF9F9
:104E90004020FDF7F9F98020FDF7F6F980235B004B
:104EA0001800FDF7F1F980239B001800FDF7ECF9DD
:104EB0008023DB001800FDF7E7F980231B011800B1
:104EC000FDF7E2F980235B011800FDF7DDF980238F
:104ED0009B011800FDF7D8F98023DB011800FDF7CE
:104EE000D3F980231B021800FDF7CEF9C046BD465A
:104EF00080BD000080B584B000AF0200BB1D1A80E9
:104F00000F23FB1800221A70BB1D1B88002B0FD02B
:104F10000AE0BB1DBA1D128852081A800F217B18A7
:104F20001A787B1801321A70BB1D1B88012BF0D137
:104F30000F217B181A780F4B9200D358002B15D0F5
:104F40007B181A780B4B9200D3581B69002B0DD09D
:104F50007B181A78074B9200D3581A697B18197876
:104F6000044B8900CB58DB6818009047C046BD460B
:104F700004B080BD5800002080B584B000AF0200AE
:104F8000FB1D1A70BB1D0A1C1A700C23FB1818009D
:104F9000FFF736FCBB1D1B78002B09D0012B10D16D
:104FA000FB1D1A780C4B1B681A430B4B1A6009E067
:104FB000FB1D1B78DA43084B1B681A40064B1A602E
:104FC00000E0C0460C23FB181800FFF729FCC04680
:104FD000BD4604B080BDC0469800002080B500AF3B
:104FE0000C4B1B68002B04D000F040F800F047F891
:104FF0000DE0094B1B68002B04D000F057F800F0BF
:1050000043F804E000F076F800F079F8C046BD46B9
:1050100080BDC046980000209C00002080B582B072
:1050200000AF3B001800FFF7EBFB0E4B1B68002B9B
:1050300003D0FB1D00221A700AE00B4B1B68002BEB
:1050400003D0FB1D01221A7002E0FB1D02221A7020
:105050003B001800FFF7E4FBFB1D1B781800BD4662
:1050600002B080BD980000209C00002080B500AFF9
:1050700001210020FDF732F9C046BD4680BD80B554
:1050800000AFC046BD4680BD80B582B000AF3B1DBD
:105090001800FFF7B5FBFFF7D3FB3B1D1800FFF728
:1050A000BFFBC046BD4602B080BD000080B582B0E7
:1050B00000AF3B1D1800FFF7A3FBFFF7FFFBFDF759
:1050C000FFF80B4B1A680A4B04210A431A60FDF7DC
:1050D0007FF9FDF76FF93B1D1800FFF7A1FB0121D8
:1050E0000120FDF72FF9C046BD4602B080BDC04685
:1050F0000070004080B500AFC046BD4680BD80B5A1
:1051000000AFC046BD4680BD80B586B000AF384B0D
:105110001B7801225340DBB2002B65D0354B1A6D52
:10512000344B8021C9020A431A65334B334A1A6053
:10513000314B00225A60304B1F229A602E4B304A6E
:10514000DA602D4B00221A612B4B00229A612A4B08
:105150000022DA61284B1800FEF76AF814217B1848
:105160000022DA707B1801225A707B1801229A7093
:105170007B1801221A7079181F4B00221800FEF7C5
:105180001DFA3B0000221A703B0000225A703B00BF
:1051900000229A703B0000225A603B000022DA7025
:1051A0003B0000221A613B000022DA603900124BFA
:1051B00000221800FEF7E2F80F4B1800FEF77CFD06
:1051C000002201210220FCF73DFE0220FCF74FFEE9
:1051D00080235A00084B11001800FEF737FC00F03E
:1051E00011F8034B01221A70C046BD4606B080BDBF
:1051F000A000002000100240A40000200028004071
:10520000FF03000080B500AF074A084B11001800EB
:1052100000F04AFA02000B00054B1A60044B1B68B1
:105220001800BD4680BDC046F400002008010020E3
:10523000F000002080B500AF024B1B681800BD468F
:1052400080BDC046F000002080B500AF03231800E9
:10525000BD4680BDB0B582B000AF786079680A0005
:1052600000210B00510EDD010D43D4017D220023EE
:1052700020002900FBF7FCF802000B0013001800C7
:10528000BD4602B0B0BD80B584B000AF78607B6829
:105290009B0AFB607B689B059B0D7B60FA68130093
:1052A0005B019B1A9B009B18DB0019007A681300B6
:1052B0005B019B1A9B009B18DB009B0ACB18180014
:1052C000BD4604B080BD0000B0B584B000AFF8604A
:1052D0001B4B00229B5E03331C00DB171D0000F0FC
:1052E000CBF90200FB689B1A3B6000237B603A68A5
:1052F0007B681900A94205DC1900A94207D11300F7
:10530000A34204D900210420FFF736FE03E0012167
:105310000420FFF731FEFFF781FE0300012B06D1C9
:10532000074B00229B5E1A00FB689B1AFB60FB6820
:10533000180000F027F8C046BD4604B0B0BDC04616
:10534000A200002080B500AF80235A000A4B110054
:105350001800FEF77BFB084B1B68DB68FF221A4036
:10536000054B1B6805490A43DA60054B802292020F
:105370005A61C046BD4680BDA40000207FFEFFFFED
:1053800000040140F0B58DB000AF78602E243B19C9
:1053900000221A802C23FB1800221A802A23FB18D3
:1053A00000221A802823FB1800221A8026257B1948
:1053B00000221A801026BA199B4B043323CB23C238
:1053C00003CB03C20C231D00FB18974A92691A6095
:1053D000FFF7B8FFBB195B689AB23B1993498A1A69
:1053E0001A807B689BB29B059B0D99B23B193A19B9
:1053F00012888A181A807B689B0A7B602B00FB1836
:105400009A7826257B191A800AE07B68884A944698
:1054100063447B6026217B181A887B1801321A802E
:105420007B68844A9342F0D81023FB181A7828230B
:10543000FB181A800AE07B687F4A944663447B60CD
:1054400028217B181A887B1801321A807A68E12398
:105450001B019A42EFD21023FB185A782A23FB181B
:105460001A8008E07B683C3B7B602A217B181A8805
:105470007B1801321A807B683B2BF3D81023FB1872
:105480009B7899B27B689AB22C23FB188A181A80F1
:105490000DE02E22BB18BA18128868498C46624467
:1054A0001A802C217B181A887B1801321A802E232F
:1054B000FB181A888023DB009A42EAD20BE02C22E8
:1054C000BB18BA1812883C3A1A802A217B181A880D
:1054D0007B1801321A802C23FB181B883B2BEED83B
:1054E0000BE02A22BB18BA1812883C3A1A802821ED
:1054F0007B181A887B1801321A802A23FB181B8814
:105500003B2BEED80BE02822BB18BA181288183AA9
:105510001A8026217B181A887B1801321A802823CA
:10552000FB181B88172BEED80C217B18DB78032285
:105530001340DBB2002B19D17B185B78013B404A4A
:10554000D35C9BB226243A1912889A4228D93B1977
:1055500018887B185B78013B394AD35C1900FAF74D
:1055600043FF0B001A003B191A8019E00C217B182D
:105570005B78013B334AD35C9BB226243A191288EC
:105580009A420DD93B1918887B185B78013B2D4A4C
:10559000D35C1900FAF728FF0B001A003B191A8098
:1055A0002E23FB181B88214AD31A1A00264B5A6057
:1055B000254BA02212059A612C23FB181B88DAB216
:1055C000214B9A702A23FB181B88DAB21E4B5A70A3
:1055D0002823FB181B88DAB21B4B1A702623FB18F2
:1055E0001B88D9B2184B202299541023FB18DA7863
:1055F000154BDA70144B0022DA61134B00225A610A
:10560000114B802252005A620F4B0022DA600E4B7F
:1056100000221A610C490D4B00221800FEF7CAF84F
:10562000C046BD460DB0F0BDF0000020FF030000F5
:1056300080AEFEFF7F510100F0F1FFFF00FCFFFF95
:10564000C4990008B8990008C8000020A4000020F0
:1056500080B588B000AF0823FA183B1D1100180070
:1056600000F022F802000B001300FB61FB69180038
:10567000BD4608B080BD000080B588B000AF0823EB
:10568000FA183B1D1100180000F00EF802000B0084
:105690001300FB61034B1B68FA69D31A1800BD465F
:1056A00008B080BDF0000020B0B58CB000AF7861CC
:1056B000396100220023BA62FB62454B9B6A7B6220
:1056C0007969444B00221800FEF726F83969414BEE
:1056D00000221800FDF716FF3D4B9B6A7A6A9A423A
:1056E000EBD17B69DB781A003B4B534303339B08B8
:1056F0003B627B69DB7803221340DBB2002B01D1D4
:10570000364B00E0364BFB617B695B785A1E130019
:105710001B019B1A9B009B180133002B00DA0133FD
:105720005B1019007B695B78013B5B00FA69DA402A
:10573000130003221340CB1A3A6AD3183B627B69E9
:105740009B781A003B6AD318013B3B623A6A13000C
:105750005B009B181A01D21A13019B1ADB013B62F2
:105760003B699B7819003B691B781A0013001B01E9
:105770009B1A1A01D21A13011A0010003B695B78B8
:105780001A0013001B019B1A9B00C318CB183A6A1E
:10579000D3183B623B6ABB600023FB60BA68FB68BE
:1057A00011008D0D13009C023B695B680D4AD31AF2
:1057B0003B6000237B603A687B6812196B41BA62D8
:1057C000FB62BA6AFB6A10001900BD460CB0B0BD9E
:1057D00000280040A4000020B505000050554400FA
:1057E000A0AA9900FF03000080B582B000AF154B5E
:1057F0007B6000210420FFF7BFFB134B8022920245
:105800005A617B681B689A6880235B01134014D03F
:105810007B681B68DA6880235B0013400DD07B68CF
:105820001B68DB68FF221A407B681B6807490A4334
:10583000DA607B68180000F00BF8C046BD4602B085
:1058400080BDC046A4000020000401407FFEFFFF91
:1058500080B582B000AF786003F00AFAC046BD465A
:1058600002B080BD90B587B002AF78600C00100028
:105870001900FB1C221C1A70BB1C021C1A707B1C1A
:105880000A1C1A700C23FB181800FEF7B9FF7B687E
:10589000FA1C12781A70FB1C1B78002B54D1714B28
:1058A0005A6A704B802149010A435A626D4B5A6A09
:1058B0006C4B6D490A405A626A4B5A6B694B8021A6
:1058C00049010A435A63FB1C1A78684B58214A4322
:1058D0006749D1507B68181DBB1C00215956002315
:1058E0000193022300930023022203F0A5F87B68B2
:1058F000183318007B1C0021595600230193022302
:1059000000930023022203F097F87B682C331800E1
:105910002023FB18002159560023019302230093F2
:105920000023022203F088F87B6840331800242308
:10593000FB180021595600230193012300930023F3
:10594000022203F079F853E0464B9A6A454B8021D6
:10595000C9010A439A62434B9A6A424B45490A403D
:105960009A62404B9A6B3F4B8021C9010A439A636C
:10597000FB1C1A783D4B58214A433F49D1507B6864
:10598000181DBB1C002159560023019302230093CC
:105990000023022203F050F87B68183318007B1CA8
:1059A0000021595600230193022300930023022271
:1059B00003F042F87B682C3318002023FB180021E9
:1059C000595600230193022300930023022203F07F
:1059D00033F87B68403318002423FB180021595604
:1059E00000230193012300930023022203F024F8F3
:1059F0002423FB181B785BB2013312D1FB1C1B78EC
:105A00001A4A58214B43D3181833802292001A6047
:105A100078680023009300230022002100F07CF826
:105A200007E078680123009300230022002100F0A2
:105A300073F8124A7B681100180000F005F9FB1C8E
:105A40001B7858225A43094BD3181800FEF768F9FF
:105A50000C23FB181800FEF7E3FEC046BD4605B058
:105A600090BDC04600100240FFEFFFFF0C01002078
:105A700000300140FFBFFFFF0038004080969800D3
:105A800080B584B002AF78607B681B781A00582319
:105A90005A43204BD3181800FEF7ACF97B68181D49
:105AA0007B680421595600230193002300930023AF
:105AB000012202F0C1FF7B68183318007B681821AF
:105AC000595600230193022300930023012202F080
:105AD000B3FF7B682C3318007B682C229956002377
