:020000040800F2
:10000000005000201D3600086D35000877350008C7
:1000100000000000000000000000000000000000E0
:100020000000000000000000000000007D35000816
:10003000000000000000000087350008913500082E
:100040006D3600086D3600086D3600086D36000804
:100050006D3600086D3600086D3600086D360008F4
:100060006D3600086D3600086D3600086D360008E4
:100070006D3600086D3600086D3600086D360008D4
:100080006D3600086D3600086D360008000000006F
:100090006D3600086D3600086D3600086D360008B4
:1000A0006D3600086D3600086D3600086D360008A4
:1000B0006D3600086D3600086D3600086D36000894
:1000C00010B5064C2378002B07D1054B002B02D02E
:1000D000044800E000BF0123237010BD040000208D
:1000E00000000000C8360008044B10B5002B03D0F8
:1000F0000349044800E000BF10BDC04600000000F6
:1001000008000020C8360008002243088B4274D340
:1001100003098B425FD3030A8B4244D3030B8B4208
:1001200028D3030C8B420DD3FF22090212BA030C11
:100130008B4202D31212090265D0030B8B4219D3F2
:1001400000E0090AC30B8B4201D3CB03C01A524112
:10015000830B8B4201D38B03C01A5241430B8B425A
:1001600001D34B03C01A5241030B8B4201D30B0343
:10017000C01A5241C30A8B4201D3CB02C01A52416A
:10018000830A8B4201D38B02C01A5241430A8B422D
:1001900001D34B02C01A5241030A8B4201D30B0216
:1001A000C01A5241CDD2C3098B4201D3CB01C01A30
:1001B000524183098B4201D38B01C01A524143093A
:1001C0008B4201D34B01C01A524103098B4201D328
:1001D0000B01C01A5241C3088B4201D3CB00C01A95
:1001E000524183088B4201D38B00C01A524143080D
:1001F0008B4201D34B00C01A5241411A00D2014632
:10020000524110467047FFE701B5002000F006F8A4
:1002100002BDC0460029F7D076E770477047C04658
:10022000002B11D1002A0FD1002900D1002802D0C3
:100230000021C943081C07B4024802A140180290DB
:1002400003BDC046D9FFFFFF03B4684601B502985D
:1002500000F006F8019B9E4602B00CBC7047C046F9
:10026000F0B557464E464546DE46E0B504000D0063
:100270009246994683B08B4230D82DD0494650469D
:1002800000F0BAF829000600200000F0B5F8331A93
:100290009846203B9B4633D45A46534693404246A9
:1002A0001F00534693401E00AF423AD8AF4200D1E0
:1002B00078E05B46A41BBD41002B00DA75E000220C
:1002C00000230092019301235A4693400193012396
:1002D00042469340009328E08242CFD90022002377
:1002E000009201930C9B002B01D01C605D60009874
:1002F000019903B03CBC90469946A246AB46F0BD7E
:10030000424620239B1A5246DA40414613004A4691
:100310008A40170042461F43534693401E00AF4297
:10032000C4D900220023009201934346002BD9D068
:10033000FB0772081A4346467B080EE0AB4201D128
:10034000A2420CD8A41A9D41012024196D4100211C
:10035000013E24184D41002E06D0AB42EED9013E9D
:1003600024196D41002EF8D1009801995B460019BF
:100370006941002B24DB2B005A464446D3402A0017
:10038000E2401C005B461500002B2ADB26009E4045
:10039000330026004746BE403200801A9941009043
:1003A00001919FE7A342BCD883E742462023002166
:1003B0009B1A0022009101920122DA40019286E705
:1003C000424620239B1A2A0046469A402300F340C7
:1003D000444613432A00E2401C005B461500002BF4
:1003E000D4DA42462F002023260097409B1ADE4095
:1003F0003B003343CDE7C04610B5002903D100F0E0
:1004000007F8203002E0081C00F002F810BDC046DA
:100410001C2101231B04984201D3000C10391B0A34
:10042000984201D3000A08391B09984201D30009F8
:10043000043902A2105C40187047C046040302024F
:100440000101010100000000000000000023C25C67
:100450000133002AFBD1581E7047000080B582B0DE
:1004600000AFFB1D00221A700B4B1A680A4B40218B
:100470000A431A60002000F011F8031E03D0FB1D90
:1004800001221A7001E002F007FFFB1D1B78180023
:10049000BD4602B080BDC0460020024090B585B088
:1004A00000AF78600F243B1900221A700F4B1B68B5
:1004B000FA2291001800FFF727FE0300180000F051
:1004C00026FB031E03D03B1901221A7006E079684F
:1004D00001235B420022180000F004FB0F23FB18ED
:1004E0001B781800BD4605B090BDC0460000002036
:1004F00080B500AF034B1B685A1C024B1A60C04604
:10050000BD4680BD2000002080B500AF024B1B68B7
:100510001800BD4680BDC0462000002080B584B0D4
:1005200000AF7860FFF7F0FF0300BB607B68FB6003
:10053000FB68013302D0FB680133FB60C046FFF764
:10054000E3FF0200BB68D31AFA689A42F7D8C046A4
:10055000C046BD4604B080BD80B582B000AF7860B3
:100560007B68002B01D1012359E17B685B6D002B77
:100570000AD17B6800229A657B6850220021995439
:100580007B68180002F09CFE7B685B6D10221340B4
:10059000102B05D07B681B689B68042213400BD08E
:1005A0007B685B6D10221A437B685A657B6850221A
:1005B00000219954012332E17B685B6D9A4A134014
:1005C00002221A437B685A657B681B689B6803227A
:1005D0001340012B08D17B681B681B680122134064
:1005E000012B01D1012300E00023002B49D17B68BE
:1005F0005A68C0231B069A420BD07B685A68802336
:10060000DB059A4205D07B685A6880231B069A4214
:1006100011D17B681B681A697B681B68920092087D
:100620001A617B681B6819697B685A687B681B685C
:100630000A431A6114E07B681B681A697B681B68AF
:10064000920092081A61794B1A68784B78490A40EF
:100650001A60764B19687B685A68744B0A431A60B3
:100660007B681B68DA687B681B6818218A43DA603C
:100670007B681B68D9687B689A687B681B680A433B
:10068000DA606A4B1A68694B6A490A401A60674B1C
:1006900019687B685B6B5A06644B0A431A607B6877
:1006A0001B689A6880235B05134008D17B681B6830
:1006B0009A687B681B68802149050A439A607B68B9
:1006C0001B68DA687B681B685B490A40DA607B68F4
:1006D0001B68D9687B68DA687B681B69022B01D1CB
:1006E000042300E000231A437B6820201B5C5B038B
:1006F0001A437B682C201B5C5B001A437B681B6BD6
:100700001A437B689B699B031A437B68DB69DB03A5
:100710001A437B681B680A43DA607B685A6AC22303
:10072000FF339A420BD07B681B68D9687B685A6A92
:100730007B689B6A1A437B681B680A43DA607B68A4
:1007400021229B5C012B1AD17B6820229B5C002B11
:1007500009D17B681B68DA687B681B6880214902C5
:100760000A43DA600BE07B685B6D20221A437B68EA
:100770005A657B689B6D01221A437B689A657B688A
:10078000DB6B012B1FD17B681B681A697B681B68B8
:100790002A490A401A617B681B6819697B681A6CD0
:1007A0007B685B6C1A437B689B6C1A437B681B6895
:1007B0000A431A617B681B681A697B681B68012100
:1007C0000A431A610EE07B681B681B690122134013
:1007D000012B07D17B681B681A697B681B680121A4
:1007E0008A431A617B681B685A697B681B6807210A
:1007F0008A435A617B681B6859697B689A6B7B687E
:100800001B680A435A617B6800229A657B685B6DAE
:100810000322934301221A437B685A650023180080
:10082000BD4602B080BDC046FDFEFFFF0827014067
:10083000FFFFC3FFFFFFFFFD1902FEFF03FCFFFFE9
:1008400080B582B000AF786039607B6850229B5CD5
:10085000012B01D1022385E07B68502201219954AC
:100860007B681B689B68042213400BD07B685B6D20
:1008700020221A437B685A657B68502200219954D4
:1008800001236FE03B685B68384A934235D07B6850
:100890001B68996A3B681B685B035A0B7B681B6883
:1008A0000A439A623B681A688023DB02134009D02E
:1008B0002F4B1A682E4B802109040A431A600A2024
:1008C00000F05EF83B681A6880239B02134006D054
:1008D000274B1A68264B8021C9030A431A603B68DC
:1008E0001A6880235B02134037D0214B1A68204BD3
:1008F000802149040A431A602FE07B681B689A6ACA
:100900003B681B685B035B0BD9437B681B680A4031
:100910009A623B681A688023DB02134005D0144BAF
:100920001A68134B13490A401A603B681A688023FF
:100930009B02134005D00E4B1A680D4B0E490A401E
:100940001A603B681A6880235B02134005D0084B8D
:100950001A68074B09490A401A607B685022002137
:10096000995400231800BD4602B080BD011000005C
:1009700008270140FFFF7FFFFFFFBFFFFFFFFFFED4
:1009800080B584B000AF78600B4B1B680B49180032
:10099000FFF7BAFB03001A007B685343FB6002E0D9
:1009A000FB68013BFB60FB68002BF9D1C046C046E9
:1009B000BD4604B080BDC0460000002040420F008C
:1009C00090B583B000AF02003960FB1D1A70FB1DAB
:1009D0001B787F2B32D92F4AFB1D1B7819000F2360
:1009E0000B40083B9B0806339B00D31804331B685D
:1009F000FA1D1278110003220A40D200FF21914013
:100A00000A00D2431A4011003B689B01FF221A40A2
:100A1000FB1D1B78180003230340DB009A401D4890
:100A2000FB1D1B781C000F232340083B9B080A4337
:100A300006339B00C31804331A6027E0164AFB1DD7
:100A40001B785BB29B08C0339B009B58FA1D127841
:100A5000110003220A40D200FF2191400A00D24334
:100A60001A4011003B689B01FF221A40FB1D1B78B6
:100A7000180003230340DB009A400748FB1D1B7846
:100A80005BB29B080A43C0339B001A50C046BD4668
:100A900003B090BD00ED00E000E100E080B582B061
:100AA00000AF78607B685A1E80235B049A4201D3B2
:100AB000012310E00A4B7A68013A5A6001235B4235
:100AC00003211800FFF77CFF054B00229A60044BBE
:100AD00007221A6000231800BD4602B080BDC04640
:100AE00010E000E080B584B000AFB9607A600F21FB
:100AF0007B18021C1A70BA687B181B785BB2110055
:100B00001800FFF75DFFC046BD4604B080BD80B54C
:100B100082B000AF78607B681800FFF7BFFF03006A
:100B20001800BD4602B080BD80B586B000AF7860C9
:100B3000396000237B610023FB6000233B6155E1AA
:100B40003B681B6801217A6991400A001340FB60F1
:100B5000FB68002B00D146E13B685B68022B03D0A9
:100B60003B685B68122B23D17B69DA087B6808320B
:100B70009200D3583B617B69072213409B000F22F0
:100B80009A401300DA433B6913403B613B681A69A2
:100B90007B6907210B409B009A4013003A6913437D
:100BA0003B617B69DA087B68083292003969D15071
:100BB0003B685B68012B0BD03B685B68022B07D05E
:100BC0003B685B68112B03D03B685B68122B30D10C
:100BD0007B689B683B617B695B0003229A40130042
:100BE000DA433B6913403B613B68DA687B695B0031
:100BF0009A4013003A6913433B617B683A699A60F3
:100C00007B685B683B6101227B699A401300DA4391
:100C10003B6913403B613B685B681B0901221A403A
:100C20007B699A4013003A6913433B617B683A69D8
:100C30005A607B681B683B617B695B0003229A40BA
:100C40001300DA433B6913403B613B685B68032256
:100C50001A407B695B009A4013003A6913433B6179
:100C60007B683A691A607B68DB683B617B695B0083
:100C700003229A401300DA433B6913403B613B680F
:100C80009A687B695B009A4013003A6913433B61A1
:100C90007B683A69DA603B685A6880235B051340D9
:100CA00000D1A0E0574B5A6B564B01210A435A63BF
:100CB000554A7B699B0802339B009B583B617B69CB
:100CC000032213409B000F229A401300DA433B6932
:100CD00013403B617A68A023DB059A421FD07B68F2
:100CE0004A4A934219D07B68494A934213D07B68A1
:100CF000484A93420DD07B68474A934207D07B68AD
:100D0000464A934201D105230AE0062308E0042362
:100D100006E0032304E0022302E0012300E00023B5
:100D20007A6903210A40920093403A6913433B6178
:100D300035497B699B0802339B003A695A50384B0E
:100D40001B683B61FB68DA433B6913403B613B68CE
:100D50005A6880235B02134003D03A69FB6813434F
:100D60003B612F4B3A691A602D4B5B683B61FB6816
:100D7000DA433B6913403B613B685A6880239B021E
:100D8000134003D03A69FB6813433B61244B3A6933
:100D90005A60234B9B683B61FB68DA433B69134015
:100DA0003B613B685A6880235B03134003D03A6978
:100DB000FB6813433B611A4B3A699A60184BDB6836
:100DC0003B61FB68DA433B6913403B613B685A680F
:100DD00080239B03134003D03A69FB6813433B61B4
:100DE0000F4B3A69DA607B6901337B613B681A68B3
:100DF0007B69DA40131E00D0A2E6C046C046BD465D
:100E000006B080BD00100240000001400004005008
:100E100000080050000C005000100050001C005052
:100E20000004014080B582B000AF78600800110076
:100E3000BB1C021C1A807B1C0A1C1A707B1C1B78B2
:100E4000002B04D0BB1C1A887B689A6103E0BB1C92
:100E50001A887B689A62C046BD4602B080BD000019
:100E600080B582B000AF78607B68002B01D1012390
:100E700082E07B6841229B5CDBB2002B07D17B6860
:100E80004022002199547B68180002F055FA7B68D3
:100E90004122242199547B681B681A687B681B686F
:100EA00001218A431A607B685A687B681B68344951
:100EB0000A401A617B681B689A687B681B68314925
:100EC0000A409A607B68DB68012B08D17B689A68CE
:100ED0007B681B68802109020A439A6007E07B68EF
:100EE0009A687B681B68842109020A439A607B68C0
:100EF000DB68022B04D17B681B68802212015A60D8
:100F00007B681B685A687B681B681F490A435A60E4
:100F10007B681B68DA687B681B681A490A40DA60DC
:100F20007B681A697B685B691A4311007B689B695F
:100F30001A027B681B680A43DA607B68D9697B68A0
:100F40001A6A7B681B680A431A607B681B681A6808
:100F50007B681B6801210A431A607B6800225A647F
:100F60007B684122202199547B6800221A637B68A8
:100F700042220021995400231800BD4602B080BDD2
:100F8000FFFFFFF0FF7FFFFF0080000280B582B00F
:100F900000AF786039607B6841229B5CDBB2202B1C
:100FA00038D17B6840229B5C012B01D1022332E0C7
:100FB0007B684022012199547B6841222421995465
:100FC0007B681B681A687B681B6801218A431A606A
:100FD0007B681B681A687B681B6811490A401A60A5
:100FE0007B681B6819687B681B683A680A431A604B
:100FF0007B681B681A687B681B6801210A431A60BA
:101000007B684122202199547B6840220021995419
:10101000002300E002231800BD4602B080BDC04698
:10102000FFEFFFFF80B584B000AF786039607B6868
:1010300041229B5CDBB2202B39D17B6840229B5C38
:10104000012B01D1022333E07B6840220121995416
:101050007B684122242199547B681B681A687B684D
:101060001B6801218A431A607B681B681B68FB6050
:10107000FB68114A1340FB603B681B02FA6813438C
:10108000FB607B681B68FA681A607B681B681A68DB
:101090007B681B6801210A431A607B68412220217A
:1010A00099547B68402200219954002300E00223D8
:1010B0001800BD4604B080BDFFF0FFFF80B500AF53
:1010C000044B1A68034B802149000A431A60C0464A
:1010D000BD4680BD00700040B0B58AB000AF7860FA
:1010E0007B68002B02D1012300F0BBFBC84BDB68FF
:1010F0000C221340FB61C64BDA6880235B0213406D
:10110000BB617B681B680122134000D17EE0FB6954
:10111000082B07D0FB690C2B12D1BA6980235B0224
:101120009A420DD1BA4B1A6880239B02134000D11A
:101130006BE07B685B68002B67D1012300F091FBBB
:101140007B685A6880235B029A4207D1B04B1A68C9
:10115000AF4B802149020A431A6027E07B685A6836
:10116000A023DB029A420ED1A94B1A68A84B80211A
:10117000C9020A431A60A64B1A68A54B802149028E
:101180000A431A6012E0A24B1A68A14BA1490A4017
:101190001A609F4B1A6880235B021340FB60FB6858
:1011A0009B4B1A689A4B9C490A401A607B685B68A3
:1011B000002B15D0FFF7A8F903007B6109E0FFF7CA
:1011C000A3F902007B69D31A642B02D9032300F030
:1011D00048FB8F4B1A6880239B021340EFD015E029
:1011E000FFF792F903007B6108E0FFF78DF9020039
:1011F0007B69D31A642B01D9032332E3844B1A6829
:1012000080239B021340F0D100E0C0467B681B683E
:101210000222134000D198E07B68DB687B627B6A26
:101220002022134009D07A4B1A68794B20210A43B7
:101230001A607B6A202293437B62FB69042B05D0F2
:10124000FB690C2B3DD1BB69002B3AD1704B1B685D
:101250000422134004D07B6A002B01D1012300E358
:101260006B4B5B686D4A134019007B681B691A025F
:10127000674B0A435A60664B1B6809229343190067
:10128000634B7A6A0A431A6000F020FC0100604B4D
:10129000DB681B090F221340614AD35C0A00DA4065
:1012A000604B1A6013257C190020FFF7F7F8030044
:1012B00023702A00BB181B78002B46D0BB181B7864
:1012C000CFE27B6A002B27D0514B1B680922934346
:1012D00019004F4B7A6A0A431A60FFF715F90300A9
:1012E0007B6108E0FFF710F902007B69D31A022B3B
:1012F00001D90323B5E2464B1B6804221340F1D009
:10130000434B5B68454A134019007B681B691A020E
:101310003F4B0A435A6018E03D4B1A683C4B012191
:101320008A431A60FFF7F0F803007B6108E0FFF7DB
:10133000EBF802007B69D31A022B01D9032390E258
:10134000334B1B6804221340F1D17B681B681022C9
:10135000134000D19FE0FB69002B3FD12C4B1A6852
:1013600080239B00134005D07B68DB69002B01D1F3
:10137000012376E2264B5B682B4A134019007B68F9
:101380005A6A234B0A435A60214B5B681B02190AB5
:101390007B681B6A1A061E4B0A435A607B685B6AAD
:1013A0005B0B0133802212029A40194BDB681B0948
:1013B0000F210B401A49CB5CDA401A4B1A601325F7
:1013C0007C190020FFF76AF8030023702A00BB187D
:1013D0001B78002B5FD0BB181B7842E27B68DB696F
:1013E000002B3ED00A4B1A68094B802149000A4362
:1013F0001A60FFF789F803007B6117E0FFF784F8B4
:1014000002007B69D31A022B10D9032329E2C046BC
:1014100000100240FFFFFEFFFFFFFBFFFFE0FFFFAA
:101420003837000800000020FF1FFFFFCA4B1A6872
:1014300080239B001340E1D0C74B5B68C74A134031
:1014400019007B685A6AC44B0A435A60C24B5B68F6
:101450001B02190A7B681B6A1A06BF4B0A435A60B3
:1014600019E0BD4B1A68BC4BBD490A401A60FFF732
:101470004BF803007B6108E0FFF746F802007B6948
:10148000D31A022B01D90323EBE1B34B1A68802353
:101490009B001340F0D17B681B680822134036D0B4
:1014A0007B685B69002B19D0AB4B1A6DAA4B0121ED
:1014B0000A431A65FFF728F803007B6108E0FFF78D
:1014C00023F802007B69D31A022B01D90323C8E158
:1014D000A14B1B6D02221340F1D018E09E4B1A6DF8
:1014E0009D4B01218A431A65FFF70EF803007B61CB
:1014F00008E0FFF709F802007B69D31A022B01D933
:101500000323AEE1944B1B6D02221340F1D17B68A3
:101510001B680422134000D1AEE023203B180022B8
:101520001A708D4B9A6B80235B05134009D18A4B4F
:101530009A6B894B802149050A439A633B18012223
:101540001A70884B1A6880235B0013401AD1854BB0
:101550001A68844B802149000A431A60FEF7D4FFC1
:1015600003007B6108E0FEF7CFFF02007B69D31A1E
:10157000642B01D9032374E17A4B1A6880235B0042
:101580001340F0D07B689A6880235B009A4207D1B1
:10159000714B1A6D704B802149000A431A6531E086
:1015A0007B689B68002B0CD16B4B1A6D6A4B6C49A6
:1015B0000A401A65684B1A6D674B6B490A401A65F9
:1015C00020E07B689A68A023DB009A420ED1624B30
:1015D0001A6D614B8021C9000A431A655E4B1A6D72
:1015E0005D4B802149000A431A650BE05A4B1A6D86
:1015F000594B5B490A401A65574B1A6D564B5A496D
:101600000A401A657B689B68002B15D0FEF77CFFAB
:1016100003007B6109E0FEF777FF02007B69D31AC4
:10162000524A934201D903231BE14B4B1A6D80238D
:101630009B001340EFD014E0FEF766FF03007B61D0
:1016400009E0FEF761FF02007B69D31A474A934223
:1016500001D9032305E1404B1A6D80239B00134001
:10166000EFD12323FB181B78012B05D13A4B9A6B42
:10167000394B3F490A409A637B681B68202213401C
:1016800049D07B689B69002B26D0334B9A68324B3C
:1016900001210A439A60304B5A6B2F4B01210A43B8
:1016A0005A63344B1A6A334B802189010A431A6208
:1016B000FEF72AFF03007B6108E0FEF725FF02002A
:1016C0007B69D31A022B01D90323CAE0224B9B6802
:1016D00002221340F1D01EE01F4B9A681E4B0121DD
:1016E0008A439A60234B1A6A224B23490A401A62A2
:1016F000FEF70AFF03007B6108E0FEF705FF02002A
:101700007B69D31A022B01D90323AAE0124B9B68F1
:1017100002221340F1D17B689B6A002B00D19FE02D
:10172000FB690C2B00D178E07B689B6A022B59D1B6
:10173000094B1A68084B11490A401A60FEF7E4FE8B
:1017400003007B611CE0FEF7DFFE02007B69D31A19
:10175000022B15D9032384E000100240FF1FFFFF76
:10176000FFFEFFFF00700040FFFBFFFF881300003B
:10177000FFFFFFEF00000140FFDFFFFFFFFFFFFE65
:101780003A4B1A6880239B041340DCD1374BDB684B
:10179000374A134019007B68DA6A7B681B6B1A436F
:1017A0007B685B6B1A43314B0A43DA602F4B1A6834
:1017B0002E4B802149040A431A60FEF7A5FE030060
:1017C0007B6108E0FEF7A0FE02007B69D31A022BC2
:1017D00001D9032345E0254B1A6880239B0413405D
:1017E000F0D03DE0214B1A68204B22490A401A6094
:1017F000FEF78AFE03007B6108E0FEF785FE02002B
:101800007B69D31A022B01D903232AE0174B1A68EC
:1018100080239B041340F0D122E07B689B6A012B5C
:1018200001D101231DE0114BDB68BB61BA69802344
:101830005B021A407B68DB6A9A420FD1BA69F023D7
:101840009B031A407B681B6B9A4207D1BA69C0237D
:101850001B041A407B685B6B9A4201D0012300E0B5
:1018600000231800BD460AB0B0BDC04600100240BB
:10187000FFFF02FFFFFFFFFEB0B584B000AF78604E
:1018800039607B68002B01D101230DE1884B1B6877
:10189000012213403A689A4211D9854B1B680122F4
:1018A00093431900824B3A680A431A60804B1B68C5
:1018B000012213403A689A4201D00123F4E07B6888
:1018C0001B680222134009D07A4BDB68F022934355
:1018D00019007B689A68774B0A43DA607B681B685B
:1018E0000122134000D189E07B685B68022B07D19D
:1018F000704B1A6880239B02134020D10123D3E050
:101900007B685B68032B07D16A4B1A6880239B04B2
:10191000134014D10123C7E07B685B68012B06D11B
:10192000644B1B680422134009D10123BCE0614BC6
:101930001A6880239B00134001D10123B4E05D4B62
:10194000DB680322934319007B685A68594B0A43AA
:10195000DA60FEF7D9FD0300FB607B685B68022B51
:1019600011D109E0FEF7D0FD0200FB68D31A524AFC
:10197000934201D9032397E04E4BDB680C221340BE
:10198000082BEFD13AE07B685B68032B11D109E0AB
:10199000FEF7BAFD0200FB68D31A474A934201D909
:1019A000032381E0434BDB680C2213400C2BEFD167
:1019B00024E07B685B68012B1BD109E0FEF7A4FDE6
:1019C0000200FB68D31A3C4A934201D903236BE01F
:1019D000384BDB680C221340042BEFD10EE0FEF7EE
:1019E00093FD0200FB68D31A334A934201D90323C3
:1019F0005AE0304BDB680C221340F0D12C4B1B68B3
:101A0000012213403A689A4211D2294B1B680122E5
:101A100093431900264B3A680A431A60244B1B680B
:101A2000012213403A689A4201D001233CE07B68CE
:101A30001B680422134009D01E4BDB681F4A134069
:101A400019007B68DA681B4B0A43DA607B681B6805
:101A5000082213400AD0174BDB68194A13401900BB
:101A60007B681B69DA00134B0A43DA6000F02EF83A
:101A70000100104BDB681B090F221340114AD35C95
:101A80000A00DA40104B1A600B257C190020FEF783
:101A900005FD030023702A00BB181B78002B02D021
:101AA000BB181B7800E000231800BD4604B0B0BD91
:101AB000002002400010024088130000FFF8FFFFE2
:101AC000FFC7FFFF383700080000002080B586B050
:101AD00000AF394BDB68FB60FB680C2213400C2B1A
:101AE00013D056D8042B02D0082B0BD051E0324B28
:101AF0001B681022134002D0304B3B6157E0304B43
:101B00003B6154E02F4B3B6151E0FB689B0C0F2283
:101B100013402D4AD35CBB60FB689B0D032213402E
:101B200001337B60244BDA6880235B02134009D0C9
:101B3000BB68244A534379681800FEF7E5FA0300AE
:101B40007B6123E01C4B1B68102213400FD0B96847
:101B50000A005201521A93019B1ADB005B181B0208
:101B600079681800FEF7D0FA03007B610EE0B968CF
:101B70000A005201521A93019B1ADB005B189B0268
:101B800079681800FEF7C0FA03007B617B693B614E
:101B90000DE0094B5B685B0B072213403B603B6821
:101BA0000133802212029A4013003B61C0463B6918
:101BB0001800BD4606B080BD0010024000093D007F
:101BC0000024F40000366E015037000880B500AFE5
:101BD000024B1B681800BD4680BDC04600000020B7
:101BE00080B500AFFFF7F2FF0100064BDB681B0A70
:101BF00007221340044AD35CD9400B001800BD46AD
:101C000080BDC046001002404837000880B500AFD4
:101C1000FFF7DCFF0100064BDB68DB0A07221340FD
:101C2000044AD35CD9400B001800BD4680BDC046B5
:101C3000001002404837000880B586B000AF7860D9
:101C40007B681B682022134006D17B681A688023BA
:101C50001B01134000D1DCE017203B1800221A7052
:101C6000A34B9A6B80235B05134009D1A04B9A6B61
:101C70009F4B802149050A439A633B1801221A7041
:101C80009C4B1A6880235B0013401AD1994B1A6849
:101C9000984B802149000A431A60FEF735FC030087
:101CA0003B6108E0FEF730FC02003B69D31A642B6D
:101CB00001D9032318E18F4B1A6880235B0013407E
:101CC000F0D08B4B1A68C0239B031340FB607B68EA
:101CD0005A68C0239B031340FA689A4207D17B6875
:101CE0009A68C0239B031340FA689A4213D07B681A
:101CF0005A68C0239B021A40C0239B029A420AD111
:101D00007B4B1A6880239B021A4080239B029A42D5
:101D100001D10123E8E0764B1A6DC0239B021340EA
:101D2000FB60FB68002B49D07B685A68C0239B028C
:101D30001340FA689A4204D07B681B682022134043
:101D40000DD17B689A68C0239B021340FA689A42BF
:101D500034D07B681A6880231B0113402ED0644B5B
:101D60001B6D654A1340FB60614B1A6D604B80210F
:101D700009030A431A655E4B1A6D5D4B5F490A40C1
:101D80001A655B4BFA681A65FA6880235B0013409A
:101D900014D0FEF7B9FB03003B6109E0FEF7B4FB8A
:101DA00002003B69D31A564A934201D903239BE0B0
:101DB0004F4B1A6D80239B001340EFD07B685A680D
:101DC000C0239B021A40C0239B029A420CD1484B6D
:101DD0001B684C4A134019007B685A68C0239B0358
:101DE0001A40434B0A431A60414B196D7B685A688D
:101DF000C0239B021A403E4B0A431A651723FB1867
:101E00001B78012B05D13A4B9A6B394B3E490A405E
:101E10009A637B681B680122134009D0344BDB6C4A
:101E20000322934319007B68DA68314B0A43DA6472
:101E30007B681B680222134009D02D4BDB6C0C22FF
:101E4000934319007B681A69294B0A43DA647B685B
:101E50001B680422134009D0254BDB6C2B4A13402E
:101E600019007B685A69224B0A43DA647B681B6855
:101E70000822134009D01E4BDB6C254A1340190081
:101E80007B689A691A4B0A43DA647B681A68802374
:101E90005B00134009D0164BDB6C174A1340190046
:101EA0007B68DA69124B0A43DA647B681B6840225C
:101EB000134009D00E4BDB6C164A134019007B68A7
:101EC0005A6A0B4B0A43DA647B681B688022134012
:101ED00009D0074BDB6C104A134019007B681A6A63
:101EE000034B0A43DA6400231800BD4606B080BDE8
:101EF0000010024000700040FFFFFCFFFFFFF7FFF3
:101F000088130000FFFFCFFFFFFFFFEFFFF3FFFF8E
:101F1000FFCFFFFFFFFFFFFBFFFFF3FF80B582B0A6
:101F200000AF78607B68002B01D101238EE07B68D5
:101F300021229B5CDBB2002B07D17B682022002191
:101F400099547B68180001F03BFA7B68212202213A
:101F500099547B681B68CA225A627B681B685322AB
:101F60005A627B68180000F09EF8031E09D07B6857
:101F70001B68FF225A627B682122042199540123A5
:101F800064E07B681B689A687B681B6831490A407B
:101F90009A607B681B6899687B685A687B681B69D4
:101FA0001A437B689B691A437B681B680A439A60E3
:101FB0007B681B687A68D2681A617B681B6819693C
:101FC0007B689B681A047B681B680A431A617B68FC
:101FD0001B68DA687B681B6880218A43DA607B684B
:101FE0001B68DA6C7B681B6803218A43DA647B68B0
:101FF0001B68D96C7B68DA697B685B691A437B680C
:102000001B680A43DA647B681B689B6820221340C4
:1020100013D17B68180000F01FF8031E0DD07B68F9
:102020001B68FF225A627B682122042199547B6835
:10203000202200219954012308E07B681B68FF22BD
:102040005A627B6821220121995400231800BD4661
:1020500002B080BDBFFF8FFF80B584B000AF786055
:102060007B681B68DA687B681B68A0218A43DA609A
:10207000FEF74AFA0300FB600AE0FEF745FA0200A9
:10208000FB68D21AFA239B009A4201D9032306E087
:102090007B681B68DB6820221340EED00023180009
:1020A000BD4604B080BD80B584B000AF78607B6869
:1020B0001B68DB68402213401AD17B681B68012231
:1020C0005242DA60FEF720FA0300FB600AE0FEF7F6
:1020D0001BFA0200FB68D21AFA239B009A4201D92C
:1020E000032306E07B681B68DB6840221340EED0C8
:1020F00000231800BD4604B080BD000080B582B04A
:1021000000AF78607B68002B01D1012359E07B6828
:1021100000229A627B6851229B5CDBB2002B07D1C4
:102120007B685022002199547B68180001F060F907
:102130007B685122022199547B681B681A687B686E
:102140001B6840218A431A607B685A687B689B68D9
:102150001A437B68DB681A437B681B691A437B68F8
:102160005B691A437B68996980239B000B401A4383
:102170007B68DB691A437B681B6A1A4311007B6822
:102180009A6A7B681B680A431A607B689B691B0C10
:102190000422134019007B685A6A7B681B680A4353
:1021A0005A607B681B68DA697B681B6807490A40CC
:1021B000DA617B6800225A657B68512201219954BB
:1021C00000231800BD4602B080BDC046FFF7FFFFE8
:1021D00080B582B000AF78607B68002B01D101230D
:1021E00044E07B685B6F002B07D17B687022002185
:1021F00099547B68180001F041F97B6824225A67E2
:102200007B681B681A687B681B6801218A431A6017
:102210007B68180000F0D8F80300012B01D10123DE
:1022200024E07B685B6A002B03D07B68180000F019
:1022300001FC7B681B685A687B681B680D490A4073
:102240005A607B681B689A687B681B682A218A43EE
:102250009A607B681B681A687B681B6801210A43C7
:102260001A607B68180000F099FC03001800BD4656
:1022700002B080BDFFB7FFFF80B58AB002AFF86043
:10228000B9603B60BB1D1A80FB685B6F202B00D0E0
:1022900094E0BB68002B03D0BB1D1B88002B01D131
:1022A00001238CE0FB689A6880235B019A4209D184
:1022B000FB681B69002B05D1BB680122134001D0CC
:1022C00001237CE0FB6870229B5C012B01D102237F
:1022D00075E0FB68702201219954FB680022DA67DF
:1022E000FB6821225A67FEF70FF903007B61FB6848
:1022F000BA1D502112885A52FB68BA1D5221128809
:102300005A52FB689A6880235B019A4208D1FB68A5
:102310001B69002B04D10023FB61BB68BB6103E098
:10232000BB68FB610023BB612CE07A69F8683B68FD
:10233000009313000022802100F074FC031E01D0E2
:1023400003233CE0FB69002B0BD1BB691B881A00FF
:10235000FB681B68D205D20D9A62BB690233BB6170
:1023600007E0FB691A78FB681B689A62FB69013316
:10237000FB61FB6852229B5A9BB2013B99B2FB68FE
:1023800052229952FB6852229B5A9BB2002BCCD10D
:102390007A69F8683B68009313000022402100F03E
:1023A00041FC031E01D0032309E0FB6820225A6789
:1023B000FB68702200219954002300E002231800DA
:1023C000BD4608B080BD0000B0B58EB000AFF8616A
:1023D0001B2318229446BC44634410221A70002325
:1023E000FB62132318229446BC44634400221A70F3
:1023F00000237B62FB699A68FB691B691A43FB69CE
:102400005B691A43FB69DB6913437B63FB691B68E8
:102410001B68B04A13401900FB691B687A6B0A43BA
:102420001A60FB691B685B68AB4A13401900FB69C3
:10243000DA68FB691B680A435A60FB699B697B6326
:10244000FB691B68A54A934204D0FB691B6A7A6B3F
:1024500013437B63FB691B689B68A14A1340190007
:10246000FB691B687A6B0A439A60FB691B689D4A8B
:10247000934236D19C4BDB6C03221340032B20D0BC
:1024800027D8022B0DD024D8002B02D0012B10D03E
:102490001FE01B2318229446BC44634401221A7097
:1024A000C5E01B2318229446BC44634402221A70E0
:1024B000BDE01B2318229446BC44634404221A70D6
:1024C000B5E01B2318229446BC44634408221A70CA
:1024D000ADE01B2318229446BC44634410221A70BA
:1024E000A5E0FB691B68814A934236D17E4BDB6CC9
:1024F0000C2213400C2B20D027D8082B0DD024D829
:10250000002B02D0042B10D01FE01B23182294466E
:10251000BC44634400221A7089E01B2318229446AD
:10252000BC44634402221A7081E01B2318229446A3
:10253000BC44634404221A7079E01B231822944699
:10254000BC44634408221A7071E01B23182294468D
:10255000BC44634410221A7069E0FB691B68644A3A
:10256000934207D11B2318229446BC4463440022A3
:102570001A705CE0FB691B685E4A934207D11B231B
:1025800018229446BC44634400221A704FE0FB6951
:102590001B68524A934243D1534BDA6CC0231B0150
:1025A0001340C022120193422AD0C022120193424A
:1025B0002ED880221201934212D08022120193421F
:1025C00026D8002B04D08022D200934210D01FE0E6
:1025D0001B2318229446BC44634400221A7026E050
:1025E0001B2318229446BC44634402221A701EE046
:1025F0001B2318229446BC44634404221A7016E03C
:102600001B2318229446BC44634408221A700EE02F
:102610001B2318229446BC44634410221A7006E01F
:102620001B2318229446BC44634410221A70FB6991
:102630001B682A4A934200D09DE01B23182294462F
:10264000BC4463441B78082B1DD020DC042B15D020
:102650001DDC002B02D0022B05D018E0FFF7C0FADA
:1026600003007B621BE0204B1B681022134002D04A
:10267000214B7B6213E0214B7B6210E0FFF726FACF
:1026800003007B620BE080231B027B6207E01323C5
:1026900018229446BC44634401221A70C0467B6AE7
:1026A000002B00D1A8E1FB695A6813005B009B185E
:1026B0007A6A9A4205D3FB695B681B037A6A9A427D
:1026C0001ED9132318229446BC44634401221A7075
:1026D00092E1C046F369FFEFFFCFFFFF00480040E3
:1026E000FFF4FFFF003801400010024000440040AA
:1026F000004C00400050004000093D000024F40060
:102700007B6A3B6100237B6139697A690B001B0E90
:10271000100005021D430B001C02FB695B685B088F
:10272000BB600023FB60B868F96800196941FB6968
:102730005B683B6000237B603A687B68FDF770FD57
:1027400002000B001300FB62FA6AC0239B009A424E
:1027500009D3FA6A80235B039A4204D2FB691B689F
:10276000FA6ADA6048E1132318229446BC446344B1
:1027700001221A7040E1FB69DA6980231B029A4248
:1027800000D0AAE01B2318229446BC4463441B7863
:10279000082B6DD89A00A04BD3181B689F46FFF7F3
:1027A0001FFA03005A00FB695B685B08D218FB69DB
:1027B0005B6819001000FDF7A7FC03009BB2FB62E9
:1027C0005EE0FFF723FA03005A00FB695B685B08D1
:1027D000D218FB695B6819001000FDF795FC030037
:1027E0009BB2FB624CE08D4B1B68102213400ED055
:1027F000FB695B685B088A4A9A18FB695B68190089
:102800001000FDF781FC03009BB2FB6238E0FB691E
:102810005B685B08834A9A18FB695B6819001000C3
:10282000FDF772FC03009BB2FB6229E0FFF74EF953
:1028300003005A00FB695B685B08D218FB695B68A0
:1028400019001000FDF760FC03009BB2FB6217E06B
:10285000FB695B685B08802252029A18FB695B681F
:1028600019001000FDF750FC03009BB2FB6207E06B
:10287000132318229446BC44634401221A70C046B4
:10288000FB6A0F2B21D9FA6A80235B029A421CD281
:10289000FB6A9AB20A2018243B191B180F218A439D
:1028A0001A80FB6A5B089BB20722134099B23B195E
:1028B0001B183A19121812880A431A80FB691B6800
:1028C0003A1912181288DA6096E0132318229446F7
:1028D000BC44634401221A708EE01B2318229446E4
:1028E000BC4463441B78082B6AD89A004E4BD3181B
:1028F0001B689F46FFF774F90200FB695B685B0881
:10290000D218FB695B6819001000FDF7FDFB03009E
:102910009BB2FB625CE0FFF779F90200FB695B6840
:102920005B08D218FB695B6819001000FDF7ECFB2F
:1029300003009BB2FB624BE0384B1B681022134034
:102940000ED0FB695B685B08384A9A18FB695B68C4
:1029500019001000FDF7D8FB03009BB2FB6237E0C3
:10296000FB695B685B08324A9A18FB695B6819006F
:102970001000FDF7C9FB03009BB2FB6228E0FFF7E4
:10298000A5F80200FB695B685B08D218FB695B680D
:1029900019001000FDF7B8FB03009BB2FB6217E0C3
:1029A000FB695B685B08802212029A18FB695B680E
:1029B00019001000FDF7A8FB03009BB2FB6207E0C3
:1029C000132318229446BC44634401221A70C04663
:1029D000FB6A0F2B09D9FA6A80235B029A4204D260
:1029E000FB691B68FA6ADA6006E013231822944632
:1029F000BC44634401221A70FB6900221A66FB6919
:102A000000225A66132318229446BC4463441B7860
:102A10001800BD460EB0B0BDF036000800100240F0
:102A200000127A000048E8011437000800093D0050
:102A30000024F40080B582B000AF78607B685B6AE8
:102A4000012213400BD07B681B685B684A4A134025
:102A500019007B689A6A7B681B680A435A607B6826
:102A60005B6A022213400BD07B681B685B68434A99
:102A7000134019007B68DA6A7B681B680A435A6056
:102A80007B685B6A042213400BD07B681B685B6821
:102A90003B4A134019007B681A6B7B681B680A432A
:102AA0005A607B685B6A082213400BD07B681B6806
:102AB0005B68344A134019007B685A6B7B681B685B
:102AC0000A435A607B685B6A102213400BD07B6814
:102AD0001B689B682C4A134019007B689A6B7B68C3
:102AE0001B680A439A607B685B6A202213400BD004
:102AF0007B681B689B68254A134019007B68DA6B6A
:102B00007B681B680A439A607B685B6A40221340BB
:102B10001DD07B681B685B681D4A134019007B68E9
:102B20001A6C7B681B680A435A607B681A6C8023A6
:102B30005B039A420BD17B681B685B68154A1340A4
:102B400019007B685A6C7B681B680A435A607B6873
:102B50005B6A802213400BD07B681B685B680E4A5F
:102B6000134019007B689A6C7B681B680A435A60A3
:102B7000C046BD4602B080BDFFFFFDFFFFFFFEFF68
:102B8000FFFFFBFFFF7FFFFFFFEFFFFFFFDFFFFF09
:102B9000FFFFEFFFFFFF9FFFFFFFF7FF80B586B04E
:102BA00002AF78607B680022DA67FDF7ADFC0300B6
:102BB000FB607B681B681B6808221340082B0CD144
:102BC000FB68802291037868154A0092002200F089
:102BD00029F8031E01D003231EE07B681B681B68D5
:102BE00004221340042B0CD1FB688022D1037868A7
:102BF0000B4A0092002200F015F8031E01D00323B7
:102C00000AE07B6820225A677B6820229A677B68EB
:102C100070220021995400231800BD4604B080BDE5
:102C2000FFFFFF0180B584B000AFF860B9603B6082
:102C3000FB1D1A7029E0BB69013326D0FDF764FC47
:102C400002003B68D31ABA699A4202D3BB69002BCF
:102C50001BD1FB681B681A68FB681B6815490A4092
:102C60001A60FB681B689A68FB681B6801218A432D
:102C70009A60FB6820225A67FB6820229A67FB68EB
:102C800070220021995403230FE0FB681B68DB6965
:102C9000BA681340BA68D31A5A425341DBB21A00D9
:102CA000FB1D1B789A42C6D000231800BD4604B015
:102CB00080BDC0465FFEFFFF90B585B000AF3B0012
:102CC000184A13CA13C31188198092789A70FDF7B5
:102CD000C5FB00F02DF800F017FA00F013F900F032
:102CE00051F900F079F900F0AFF900F0DDF900F0EA
:102CF000A5F80D4B012240211800FEF793F83B0088
:102D00001800FDF7A3FB03009AB201235B423900D0
:102D10000648FFF7B1FAFA239B001800FDF7FEFB07
:102D2000EDE7C046E03600080008005048010020EA
:102D300090B59FB000AF40243B19180038231A000B
:102D4000002100F0B9FC2C23FB18180014231A00F2
:102D5000002100F0B1FC3B1D180028231A000021BF
:102D600000F0AAFC324B1B68324A1A40304B8021DB
:102D700009010A431A60FEF7A1F92F4B1A6D2E4B79
:102D80002C490A401A6521007B1805221A607B181D
:102D9000802252025A607B18802252009A607B186F
:102DA00002229A627B1880225202DA627B18802209
:102DB000D2021A637B18802212045A637B1818000F
:102DC000FEF78AF9031E01D000F060FA2C217B186F
:102DD0000F221A607B1803225A607B1800229A6027
:102DE0007B180022DA607B1800221A617B1801210F
:102DF0001800FEF741FD031E01D000F047FA3B1D0D
:102E000029221A603B1D0022DA603B1D00229A61D4
:102E10003B1D802252025A603B1D1800FEF70CFF3A
:102E2000031E01D000F032FAC046BD461FB090BD6F
:102E300000700040FFE7FFFF0010024080B582B045
:102E400000AF3B00180008231A00002100F034FCFA
:102E50002A4B2B4A1A60294B0022DA63274B802227
:102E6000D2055A60254B00229A60244B00229A63B7
:102E7000224B01221A61214B0022DA601F4B2022D3
:102E8000002199541D4B2122002199541B4B0022F3
:102E90009A621A4BC222FF325A62184B2C2200212E
:102EA0009954164B04225A61144B00221A63134B97
:102EB00000229A61114B00225A63104B0022DA6102
:102EC0000E4B1800FDF748FB031E01D000F0DEF9A1
:102ED0003B0001221A603B00802252015A603A00F6
:102EE000064B11001800FDF7ABFC031E01D000F0EB
:102EF000CDF9C046BD4602B080BDC04624000020CA
:102F00000024014080B500AF1B4B1C4A1A601A4BCD
:102F10001B4A5A60184B00229A60174B0122DA6054
:102F2000154B00221A61144B00225A61124B0022E9
:102F30009A61114B0022DA610F4B00221A620E4B8C
:102F40001800FDF78DFF031E01D000F09FF90A4B1A
:102F500000211800FEF71AF8031E01D000F096F9C0
:102F6000054B00211800FEF75DF8031E01D000F0AC
:102F70008DF9C046BD4680BD800000200054004051
:102F8000BB7C700080B500AF114B124A1A60104B29
:102F900000225A600E4B7F229A600D4BFF22DA60AE
:102FA0000B4B00221A610A4B00225A61084B002287
:102FB0009A61074B0022DA61054B1800FEF7AEFF5D
:102FC000031E01D000F062F9C046BD4680BDC04678
:102FD000CC0000200028004080B500AF184B194AF3
:102FE0001A60174B822252005A60154B00229A60D9
:102FF000134B0022DA60124B00221A61104B0022A0
:103000005A610F4B8022D2029A610D4B0022DA6185
:103010000B4B00221A620A4B00225A62084B002214
:103020009A62074B0722DA62054B1800FFF766F831
:10303000031E01D000F02AF9C046BD4680BDC0463F
:10304000F00000200038004080B500AF144B154A56
:103050001A60134BE12252025A60114B00229A600F
:103060000F4B0022DA600E4B00221A610C4B0C222F
:103070005A610B4B00229A61094B0022DA61084B1E
:1030800000221A62064B00225A62054B1800FFF715
:103090009FF8031E01D000F0F9F8C046BD4680BD80
:1030A000480100200038014080B500AF144B154A9C
:1030B0001A60134BE12252025A60114B00229A60AF
:1030C0000F4B0022DA600E4B00221A610C4B0C22CF
:1030D0005A610B4B00229A61094B0022DA61084BBE
:1030E00000221A62064B00225A62054B1800FFF7B5
:1030F0006FF8031E01D000F0C9F8C046BD4680BD80
:10310000C8010020004C004090B58BB000AF1424E3
:103110003B19180014231A00002100F0CDFA574B78
:10312000DA6A564B04210A43DA62544BDB6A042202
:1031300013403B613B69514BDA6A504B80210A4393
:10314000DA624E4BDB6A80221340FB60FB684B4B1C
:10315000DA6A4A4B01210A43DA62484BDB6A0122F0
:103160001340BB60BB68454BDA6A444B02210A43FB
:10317000DA62424BDB6A022213407B607B68A02349
:10318000DB05002202211800FDF74CFE3C4B00221B
:1031900004211800FDF746FE3A4B0022402118009A
:1031A000FDF740FE3B19802292011A603B19002274
:1031B0005A603B1900229A603B19324A19001000EC
:1031C000FDF7B2FC3B1902221A603B1901225A603A
:1031D0003B1900229A603B190022DA603A19A023B9
:1031E000DB0511001800FDF79FFC3B1904221A6053
:1031F0003B1901225A603B1900229A603B190022B8
:10320000DA603B191E4A19001000FDF78DFC3B19CE
:103210001D4A1A603B1900225A603B1900229A602D
:103220003B19174A19001000FDF77EFC3B1940229C
:103230001A603B1901225A603B1900229A603B191F
:103240000022DA603B190F4A19001000FDF76CFCF0
:1032500021007B18802212021A607B1800225A601B
:103260007B1800229A607A18A023DB051100180051
:10327000FDF75AFCC046BD460BB090BD00100240A1
:103280000004005000080050380A000080B500AF6C
:10329000C046BD4680BD000080B500AF074B5A6BED
:1032A000064B01210A435A63044B9A6B034B80215E
:1032B00049050A439A63C046BD4680BD00100240DE
:1032C00090B589B000AF78600C243B191800142326
:1032D0001A00002100F0F0F97B681B68144A934241
:1032E00022D1144B5A6B134B802189000A435A6335
:1032F000104BDA6A0F4B01210A43DA620D4BDB6A8D
:1033000001221340BB60BB683B1901221A603B19C4
:1033100003225A603B1900229A603A19A023DB0568
:1033200011001800FDF700FCC046BD4609B090BD75
:10333000002401400010024090B589B000AF7860D1
:103340000C243B19180014231A00002100F0B4F9D2
:103350007B681B68174A934228D1174BDA6A164BD1
:1033600002210A43DA62144BDB6A02221340BB607B
:10337000BB6821007B18C0221A607B1812225A6099
:103380007B1801229A607B180322DA607B180122E5
:103390001A617B18094A19001000FDF7C5FB064B9E
:1033A0009A6B054B802189030A439A63C046BD4648
:1033B00009B090BD005400400010024000040050CD
:1033C00080B582B000AF78607B681B68064A934284
:1033D00006D1064B1A6D054B8021C9020A431A65B6
:1033E000C046BD4602B080BD00280040001002402B
:1033F00090B589B000AF78600C243B1918001423F5
:103400001A00002100F058F97B681B68184A9342A3
:1034100029D1184B9A6B174B8021C9010A439A6333
:10342000144BDA6A134B02210A43DA62114BDB6A4E
:1034300002221340BB60BB683B19F02212021A60E3
:1034400021007B1802225A607B1800229A607B18A8
:103450000322DA607B1800221A617B18064A1900E1
:103460001000FDF761FBC046BD4609B090BDC046E7
:1034700000380040001002400004005090B58BB0AE
:1034800000AF786014243B19180014231A0000219F
:1034900000F012F97B681B68304A93422BD1304B05
:1034A0005A6B2F4B8021C9010A435A632C4BDA6AAD
:1034B0002B4B01210A43DA62294BDB6A01221340BC
:1034C0003B613B693B19C022D2001A6021007B1886
:1034D00002225A607B1800229A607B180322DA606D
:1034E0007B1804221A617A18A023DB05110018004A
:1034F000FDF71AFB2EE07B681B681A4A934229D11C
:10350000174B9A6B164B802109030A439A63144B9D
:10351000DA6A134B04210A43DA62114BDB6A042294
:103520001340FB60FB6814217B18C02212011A6053
:103530007B1802225A607B1800229A607B180322B3
:10354000DA607B1806221A617B18074A19001000FE
:10355000FDF7EAFAC046BD460BB090BD0038014009
:1035600000100240004C00400008005080B500AF41
:10357000C046BD4680BD80B500AFFEE780B500AF58
:10358000C046BD4680BD80B500AFC046BD4680BDCB
:1035900080B500AFFCF7ACFFC046BD4680BD000063
:1035A00080B500AF174B1A68164B802149000A43BB
:1035B0001A60144BDA68134B13490A40DA60114B56
:1035C0001A68104B11490A401A600E4B9A680D4B4D
:1035D00001218A439A600B4B1A680A4B0C490A4036
:1035E0001A60084BDA68074B0A490A40DA60054B53
:1035F00000221A61084B802212059A60C046BD461F
:1036000080BDC046001002400C40FF88F6FFF6FE69
:10361000FFFFFBFFFFFF02FF00ED00E00D488546C6
:10362000002103E00C4B5B58435004310B480C4B1A
:1036300042189A42F6D30B4A02E000231360043288
:10364000094B9A42F9D3FFF7ABFF00F011F8FFF7EF
:1036500033FBFEE7005000206C370008000000201C
:10366000040000200400002048020020FEE70000C3
:1036700070B500260C4D0D4C641BA410A64209D158
:10368000002600F021F80A4D0A4C641BA410A64243
:1036900005D170BDB300EB5898470136EEE7B30093
:1036A000EB5898470136F2E76437000864370008A2
:1036B000643700086837000803008218934200D17D
:1036C000704719700133F9E7F8B5C046F8BC08BC7B
:1036D0009E467047F8B5C046F8BC08BC9E46704789
:1036E00068656C6C6F2D776F726C64210D0A000039
:1036F0009E270008C2270008E62700087028000857
:103700002C2800087028000870280008702800087D
:1037100050280008F4280008162900083829000855
:10372000C02900087E290008C0290008C029000817
:10373000C0290008A02900080000000000000000C7
:103740000102030406070809000000000102030447
:0C375000030406080C10182030000000D4
:08375C0004CBFF7F0100000017
:04376400E900000870
:04376800C100000894
:04376C000000200039
:040000050800361D9C
:00000001FF
